{
	"FundMe.sol": {
		"FundMe": {
			"abi": [
				{
					"inputs": [],
					"stateMutability": "nonpayable",
					"type": "constructor"
				},
				{
					"inputs": [],
					"name": "notOwner",
					"type": "error"
				},
				{
					"stateMutability": "payable",
					"type": "fallback"
				},
				{
					"inputs": [
						{
							"internalType": "uint256",
							"name": "",
							"type": "uint256"
						}
					],
					"name": "Funders",
					"outputs": [
						{
							"internalType": "address",
							"name": "",
							"type": "address"
						}
					],
					"stateMutability": "view",
					"type": "function"
				},
				{
					"inputs": [
						{
							"internalType": "address",
							"name": "",
							"type": "address"
						}
					],
					"name": "addresstoFunders",
					"outputs": [
						{
							"internalType": "uint256",
							"name": "",
							"type": "uint256"
						}
					],
					"stateMutability": "view",
					"type": "function"
				},
				{
					"inputs": [],
					"name": "getFund",
					"outputs": [],
					"stateMutability": "payable",
					"type": "function"
				},
				{
					"inputs": [],
					"name": "withdraw",
					"outputs": [],
					"stateMutability": "nonpayable",
					"type": "function"
				},
				{
					"stateMutability": "payable",
					"type": "receive"
				}
			],
			"devdoc": {
				"kind": "dev",
				"methods": {},
				"version": 1
			},
			"evm": {
				"assembly": "    /* \"FundMe.sol\":131:1889  contract FundMe {... */\n  mstore(0x40, 0xa0)\n    /* \"FundMe.sol\":355:408  constructor() {... */\n  callvalue\n  dup1\n  iszero\n  tag_1\n  jumpi\n  revert(0x00, 0x00)\ntag_1:\n  pop\n    /* \"FundMe.sol\":390:400  msg.sender */\n  caller\n    /* \"FundMe.sol\":380:400  i_owner = msg.sender */\n  0xffffffffffffffffffffffffffffffffffffffff\n  and\n  0x80\n  dup2\n  0xffffffffffffffffffffffffffffffffffffffff\n  and\n  dup2\n  mstore\n  pop\n  pop\n    /* \"FundMe.sol\":131:1889  contract FundMe {... */\n  mload(0x80)\n  codecopy(0x00, dataOffset(sub_0), dataSize(sub_0))\n  0x00\n  assignImmutable(\"0x35bb2e240092263378f77ea1e9c278099a33b604c4c4e26d13ea227e8bb74470\")\n  return(0x00, dataSize(sub_0))\nstop\n\nsub_0: assembly {\n        /* \"FundMe.sol\":131:1889  contract FundMe {... */\n      mstore(0x40, 0x80)\n      jumpi(tag_1, lt(calldatasize, 0x04))\n      shr(0xe0, calldataload(0x00))\n      dup1\n      0x3ccfd60b\n      eq\n      tag_3\n      jumpi\n      dup1\n      0x48e2f81b\n      eq\n      tag_4\n      jumpi\n      dup1\n      0x6eb20e34\n      eq\n      tag_5\n      jumpi\n      dup1\n      0x8edd6eb6\n      eq\n      tag_6\n      jumpi\n      jump(tag_2)\n    tag_1:\n      jumpi(tag_2, calldatasize)\n        /* \"FundMe.sol\":1806:1815  getFund() */\n      tag_9\n        /* \"FundMe.sol\":1806:1813  getFund */\n      tag_10\n        /* \"FundMe.sol\":1806:1815  getFund() */\n      jump\t// in\n    tag_9:\n        /* \"FundMe.sol\":131:1889  contract FundMe {... */\n      stop\n    tag_2:\n        /* \"FundMe.sol\":1868:1877  getFund() */\n      tag_13\n        /* \"FundMe.sol\":1868:1875  getFund */\n      tag_10\n        /* \"FundMe.sol\":1868:1877  getFund() */\n      jump\t// in\n    tag_13:\n        /* \"FundMe.sol\":131:1889  contract FundMe {... */\n      stop\n        /* \"FundMe.sol\":700:1588  function withdraw() public onlyOwner... */\n    tag_3:\n      callvalue\n      dup1\n      iszero\n      tag_14\n      jumpi\n      revert(0x00, 0x00)\n    tag_14:\n      pop\n      tag_15\n      tag_16\n      jump\t// in\n    tag_15:\n      stop\n        /* \"FundMe.sol\":234:258  address[] public Funders */\n    tag_4:\n      callvalue\n      dup1\n      iszero\n      tag_17\n      jumpi\n      revert(0x00, 0x00)\n    tag_17:\n      pop\n      tag_18\n      0x04\n      dup1\n      calldatasize\n      sub\n      dup2\n      add\n      swap1\n      tag_19\n      swap2\n      swap1\n      tag_20\n      jump\t// in\n    tag_19:\n      tag_21\n      jump\t// in\n    tag_18:\n      mload(0x40)\n      tag_22\n      swap2\n      swap1\n      tag_23\n      jump\t// in\n    tag_22:\n      mload(0x40)\n      dup1\n      swap2\n      sub\n      swap1\n      return\n        /* \"FundMe.sol\":265:316  mapping(address => uint256) public addresstoFunders */\n    tag_5:\n      callvalue\n      dup1\n      iszero\n      tag_24\n      jumpi\n      revert(0x00, 0x00)\n    tag_24:\n      pop\n      tag_25\n      0x04\n      dup1\n      calldatasize\n      sub\n      dup2\n      add\n      swap1\n      tag_26\n      swap2\n      swap1\n      tag_27\n      jump\t// in\n    tag_26:\n      tag_28\n      jump\t// in\n    tag_25:\n      mload(0x40)\n      tag_29\n      swap2\n      swap1\n      tag_30\n      jump\t// in\n    tag_29:\n      mload(0x40)\n      dup1\n      swap2\n      sub\n      swap1\n      return\n        /* \"FundMe.sol\":416:694  function getFund() public payable {... */\n    tag_6:\n      tag_31\n      tag_10\n      jump\t// in\n    tag_31:\n      stop\n    tag_10:\n        /* \"FundMe.sol\":222:226  5e18 */\n      0x4563918244f40000\n        /* \"FundMe.sol\":469:495  msg.value.priceConvertor() */\n      tag_33\n        /* \"FundMe.sol\":469:478  msg.value */\n      callvalue\n        /* \"FundMe.sol\":469:493  msg.value.priceConvertor */\n      tag_34\n        /* \"FundMe.sol\":469:495  msg.value.priceConvertor() */\n      jump\t// in\n    tag_33:\n        /* \"FundMe.sol\":469:510  msg.value.priceConvertor() >= MINIMUM_USD */\n      lt\n      iszero\n        /* \"FundMe.sol\":461:531  require(msg.value.priceConvertor() >= MINIMUM_USD, \"Not Enough Eth!!\") */\n      tag_35\n      jumpi\n      mload(0x40)\n      0x08c379a000000000000000000000000000000000000000000000000000000000\n      dup2\n      mstore\n      0x04\n      add\n      tag_36\n      swap1\n      tag_37\n      jump\t// in\n    tag_36:\n      mload(0x40)\n      dup1\n      swap2\n      sub\n      swap1\n      revert\n    tag_35:\n        /* \"FundMe.sol\":578:579  0 */\n      0x00\n        /* \"FundMe.sol\":546:562  addresstoFunders */\n      0x01\n        /* \"FundMe.sol\":546:574  addresstoFunders[msg.sender] */\n      0x00\n        /* \"FundMe.sol\":563:573  msg.sender */\n      caller\n        /* \"FundMe.sol\":546:574  addresstoFunders[msg.sender] */\n      0xffffffffffffffffffffffffffffffffffffffff\n      and\n      0xffffffffffffffffffffffffffffffffffffffff\n      and\n      dup2\n      mstore\n      0x20\n      add\n      swap1\n      dup2\n      mstore\n      0x20\n      add\n      0x00\n      keccak256\n      sload\n        /* \"FundMe.sol\":546:579  addresstoFunders[msg.sender] == 0 */\n      sub\n        /* \"FundMe.sol\":542:632  if (addresstoFunders[msg.sender] == 0) {... */\n      tag_38\n      jumpi\n        /* \"FundMe.sol\":596:603  Funders */\n      0x00\n        /* \"FundMe.sol\":609:619  msg.sender */\n      caller\n        /* \"FundMe.sol\":596:620  Funders.push(msg.sender) */\n      swap1\n      dup1\n      0x01\n      dup2\n      sload\n      add\n      dup1\n      dup3\n      sstore\n      dup1\n      swap2\n      pop\n      pop\n      0x01\n      swap1\n      sub\n      swap1\n      0x00\n      mstore\n      keccak256(0x00, 0x20)\n      add\n      0x00\n      swap1\n      swap2\n      swap1\n      swap2\n      swap1\n      swap2\n      0x0100\n      exp\n      dup2\n      sload\n      dup2\n      0xffffffffffffffffffffffffffffffffffffffff\n      mul\n      not\n      and\n      swap1\n      dup4\n      0xffffffffffffffffffffffffffffffffffffffff\n      and\n      mul\n      or\n      swap1\n      sstore\n      pop\n        /* \"FundMe.sol\":542:632  if (addresstoFunders[msg.sender] == 0) {... */\n    tag_38:\n        /* \"FundMe.sol\":674:683  msg.value */\n      callvalue\n        /* \"FundMe.sol\":642:658  addresstoFunders */\n      0x01\n        /* \"FundMe.sol\":642:670  addresstoFunders[msg.sender] */\n      0x00\n        /* \"FundMe.sol\":659:669  msg.sender */\n      caller\n        /* \"FundMe.sol\":642:670  addresstoFunders[msg.sender] */\n      0xffffffffffffffffffffffffffffffffffffffff\n      and\n      0xffffffffffffffffffffffffffffffffffffffff\n      and\n      dup2\n      mstore\n      0x20\n      add\n      swap1\n      dup2\n      mstore\n      0x20\n      add\n      0x00\n      keccak256\n      0x00\n        /* \"FundMe.sol\":642:683  addresstoFunders[msg.sender] += msg.value */\n      dup3\n      dup3\n      sload\n      tag_40\n      swap2\n      swap1\n      tag_41\n      jump\t// in\n    tag_40:\n      swap3\n      pop\n      pop\n      dup2\n      swap1\n      sstore\n      pop\n        /* \"FundMe.sol\":416:694  function getFund() public payable {... */\n      jump\t// out\n        /* \"FundMe.sol\":700:1588  function withdraw() public onlyOwner... */\n    tag_16:\n        /* \"FundMe.sol\":1714:1721  i_owner */\n      immutable(\"0x35bb2e240092263378f77ea1e9c278099a33b604c4c4e26d13ea227e8bb74470\")\n        /* \"FundMe.sol\":1700:1721  msg.sender != i_owner */\n      0xffffffffffffffffffffffffffffffffffffffff\n      and\n        /* \"FundMe.sol\":1700:1710  msg.sender */\n      caller\n        /* \"FundMe.sol\":1700:1721  msg.sender != i_owner */\n      0xffffffffffffffffffffffffffffffffffffffff\n      and\n      eq\n        /* \"FundMe.sol\":1697:1743  if(msg.sender != i_owner){ revert notOwner();} */\n      tag_43\n      jumpi\n        /* \"FundMe.sol\":1731:1741  notOwner() */\n      mload(0x40)\n      0x251c9d6300000000000000000000000000000000000000000000000000000000\n      dup2\n      mstore\n      0x04\n      add\n      mload(0x40)\n      dup1\n      swap2\n      sub\n      swap1\n      revert\n        /* \"FundMe.sol\":1697:1743  if(msg.sender != i_owner){ revert notOwner();} */\n    tag_43:\n        /* \"FundMe.sol\":857:877  uint256 fundersIndex */\n      0x00\n        /* \"FundMe.sol\":880:881  0 */\n      0x00\n        /* \"FundMe.sol\":857:881  uint256 fundersIndex = 0 */\n      swap1\n      pop\n        /* \"FundMe.sol\":853:1038  for(uint256 fundersIndex = 0; fundersIndex < Funders.length; fundersIndex ++){... */\n    tag_45:\n        /* \"FundMe.sol\":898:905  Funders */\n      0x00\n        /* \"FundMe.sol\":898:912  Funders.length */\n      dup1\n      sload\n      swap1\n      pop\n        /* \"FundMe.sol\":883:895  fundersIndex */\n      dup2\n        /* \"FundMe.sol\":883:912  fundersIndex < Funders.length */\n      lt\n        /* \"FundMe.sol\":853:1038  for(uint256 fundersIndex = 0; fundersIndex < Funders.length; fundersIndex ++){... */\n      iszero\n      tag_46\n      jumpi\n        /* \"FundMe.sol\":945:959  address Funder */\n      0x00\n        /* \"FundMe.sol\":962:969  Funders */\n      0x00\n        /* \"FundMe.sol\":970:982  fundersIndex */\n      dup3\n        /* \"FundMe.sol\":962:983  Funders[fundersIndex] */\n      dup2\n      sload\n      dup2\n      lt\n      tag_48\n      jumpi\n      tag_49\n      tag_50\n      jump\t// in\n    tag_49:\n    tag_48:\n      swap1\n      0x00\n      mstore\n      keccak256(0x00, 0x20)\n      add\n      0x00\n      swap1\n      sload\n      swap1\n      0x0100\n      exp\n      swap1\n      div\n      0xffffffffffffffffffffffffffffffffffffffff\n      and\n        /* \"FundMe.sol\":945:983  address Funder = Funders[fundersIndex] */\n      swap1\n      pop\n        /* \"FundMe.sol\":1025:1026  0 */\n      0x00\n        /* \"FundMe.sol\":998:1014  addresstoFunders */\n      0x01\n        /* \"FundMe.sol\":998:1022  addresstoFunders[Funder] */\n      0x00\n        /* \"FundMe.sol\":1015:1021  Funder */\n      dup4\n        /* \"FundMe.sol\":998:1022  addresstoFunders[Funder] */\n      0xffffffffffffffffffffffffffffffffffffffff\n      and\n      0xffffffffffffffffffffffffffffffffffffffff\n      and\n      dup2\n      mstore\n      0x20\n      add\n      swap1\n      dup2\n      mstore\n      0x20\n      add\n      0x00\n      keccak256\n        /* \"FundMe.sol\":998:1026  addresstoFunders[Funder] = 0 */\n      dup2\n      swap1\n      sstore\n      pop\n        /* \"FundMe.sol\":930:1038  {... */\n      pop\n        /* \"FundMe.sol\":914:929  fundersIndex ++ */\n      dup1\n      dup1\n      0x01\n      add\n      swap2\n      pop\n      pop\n        /* \"FundMe.sol\":853:1038  for(uint256 fundersIndex = 0; fundersIndex < Funders.length; fundersIndex ++){... */\n      jump(tag_45)\n    tag_46:\n      pop\n        /* \"FundMe.sol\":1101:1102  0 */\n      0x00\n        /* \"FundMe.sol\":1086:1103  new address[] (0) */\n      0xffffffffffffffff\n      dup2\n      gt\n      iszero\n      tag_52\n      jumpi\n      tag_53\n      tag_54\n      jump\t// in\n    tag_53:\n    tag_52:\n      mload(0x40)\n      swap1\n      dup1\n      dup3\n      mstore\n      dup1\n      0x20\n      mul\n      0x20\n      add\n      dup3\n      add\n      0x40\n      mstore\n      dup1\n      iszero\n      tag_55\n      jumpi\n      dup2\n      0x20\n      add\n      0x20\n      dup3\n      mul\n      dup1\n      calldatasize\n      dup4\n      calldatacopy\n      dup1\n      dup3\n      add\n      swap2\n      pop\n      pop\n      swap1\n      pop\n    tag_55:\n      pop\n        /* \"FundMe.sol\":1076:1083  Funders */\n      0x00\n        /* \"FundMe.sol\":1076:1103  Funders = new address[] (0) */\n      swap1\n      dup1\n      mload\n      swap1\n      0x20\n      add\n      swap1\n      tag_56\n      swap3\n      swap2\n      swap1\n      tag_57\n      jump\t// in\n    tag_56:\n      pop\n        /* \"FundMe.sol\":1454:1470  bool callSuccess */\n      0x00\n        /* \"FundMe.sol\":1484:1494  msg.sender */\n      caller\n        /* \"FundMe.sol\":1476:1500  payable(msg.sender).call */\n      0xffffffffffffffffffffffffffffffffffffffff\n      and\n        /* \"FundMe.sol\":1508:1529  address(this).balance */\n      selfbalance\n        /* \"FundMe.sol\":1476:1534  payable(msg.sender).call{value: address(this).balance}(\"\") */\n      mload(0x40)\n      tag_58\n      swap1\n      tag_59\n      jump\t// in\n    tag_58:\n      0x00\n      mload(0x40)\n      dup1\n      dup4\n      sub\n      dup2\n      dup6\n      dup8\n      gas\n      call\n      swap3\n      pop\n      pop\n      pop\n      returndatasize\n      dup1\n      0x00\n      dup2\n      eq\n      tag_62\n      jumpi\n      mload(0x40)\n      swap2\n      pop\n      and(add(returndatasize, 0x3f), not(0x1f))\n      dup3\n      add\n      0x40\n      mstore\n      returndatasize\n      dup3\n      mstore\n      returndatasize\n      0x00\n      0x20\n      dup5\n      add\n      returndatacopy\n      jump(tag_61)\n    tag_62:\n      0x60\n      swap2\n      pop\n    tag_61:\n      pop\n        /* \"FundMe.sol\":1453:1534  (bool callSuccess, ) = payable(msg.sender).call{value: address(this).balance}(\"\") */\n      pop\n      swap1\n      pop\n        /* \"FundMe.sol\":1549:1560  callSuccess */\n      dup1\n        /* \"FundMe.sol\":1541:1576  require(callSuccess, \"Call failed\") */\n      tag_63\n      jumpi\n      mload(0x40)\n      0x08c379a000000000000000000000000000000000000000000000000000000000\n      dup2\n      mstore\n      0x04\n      add\n      tag_64\n      swap1\n      tag_65\n      jump\t// in\n    tag_64:\n      mload(0x40)\n      dup1\n      swap2\n      sub\n      swap1\n      revert\n    tag_63:\n        /* \"FundMe.sol\":743:1588  {... */\n      pop\n        /* \"FundMe.sol\":700:1588  function withdraw() public onlyOwner... */\n      jump\t// out\n        /* \"FundMe.sol\":234:258  address[] public Funders */\n    tag_21:\n      0x00\n      dup2\n      dup2\n      sload\n      dup2\n      lt\n      tag_66\n      jumpi\n      0x00\n      dup1\n      revert\n    tag_66:\n      swap1\n      0x00\n      mstore\n      keccak256(0x00, 0x20)\n      add\n      0x00\n      swap2\n      pop\n      sload\n      swap1\n      0x0100\n      exp\n      swap1\n      div\n      0xffffffffffffffffffffffffffffffffffffffff\n      and\n      dup2\n      jump\t// out\n        /* \"FundMe.sol\":265:316  mapping(address => uint256) public addresstoFunders */\n    tag_28:\n      mstore(0x20, 0x01)\n      dup1\n      0x00\n      mstore\n      keccak256(0x00, 0x40)\n      0x00\n      swap2\n      pop\n      swap1\n      pop\n      sload\n      dup2\n      jump\t// out\n        /* \"PriceConvertor.sol\":532:745  function priceConvertor(uint256 ethAmount) internal  view returns (uint256) {... */\n    tag_34:\n        /* \"PriceConvertor.sol\":599:606  uint256 */\n      0x00\n        /* \"PriceConvertor.sol\":619:635  uint256 ethPrice */\n      0x00\n        /* \"PriceConvertor.sol\":638:648  getPrice() */\n      tag_69\n        /* \"PriceConvertor.sol\":638:646  getPrice */\n      tag_70\n        /* \"PriceConvertor.sol\":638:648  getPrice() */\n      jump\t// in\n    tag_69:\n        /* \"PriceConvertor.sol\":619:648  uint256 ethPrice = getPrice() */\n      swap1\n      pop\n        /* \"PriceConvertor.sol\":659:677  uint256 priceInUsd */\n      0x00\n        /* \"PriceConvertor.sol\":705:709  1e18 */\n      0x0de0b6b3a7640000\n        /* \"PriceConvertor.sol\":692:701  ethAmount */\n      dup5\n        /* \"PriceConvertor.sol\":681:689  ethPrice */\n      dup4\n        /* \"PriceConvertor.sol\":681:701  ethPrice * ethAmount */\n      tag_71\n      swap2\n      swap1\n      tag_72\n      jump\t// in\n    tag_71:\n        /* \"PriceConvertor.sol\":680:709  (ethPrice * ethAmount) / 1e18 */\n      tag_73\n      swap2\n      swap1\n      tag_74\n      jump\t// in\n    tag_73:\n        /* \"PriceConvertor.sol\":659:709  uint256 priceInUsd = (ethPrice * ethAmount) / 1e18 */\n      swap1\n      pop\n        /* \"PriceConvertor.sol\":727:737  priceInUsd */\n      dup1\n        /* \"PriceConvertor.sol\":720:737  return priceInUsd */\n      swap3\n      pop\n      pop\n      pop\n        /* \"PriceConvertor.sol\":532:745  function priceConvertor(uint256 ethAmount) internal  view returns (uint256) {... */\n      swap2\n      swap1\n      pop\n      jump\t// out\n        /* \"PriceConvertor.sol\":205:524  function getPrice() internal  view returns (uint256) {... */\n    tag_70:\n        /* \"PriceConvertor.sol\":249:256  uint256 */\n      0x00\n        /* \"PriceConvertor.sol\":269:300  AggregatorV3Interface priceFeed */\n      0x00\n        /* \"PriceConvertor.sol\":340:382  0x694AA1769357215DE4FAC081bf1f309aDC325306 */\n      0x694aa1769357215de4fac081bf1f309adc325306\n        /* \"PriceConvertor.sol\":269:393  AggregatorV3Interface priceFeed = AggregatorV3Interface (... */\n      swap1\n      pop\n        /* \"PriceConvertor.sol\":407:417  int answer */\n      0x00\n        /* \"PriceConvertor.sol\":424:433  priceFeed */\n      dup2\n        /* \"PriceConvertor.sol\":424:449  priceFeed.latestRoundData */\n      0xffffffffffffffffffffffffffffffffffffffff\n      and\n      0xfeaf968c\n        /* \"PriceConvertor.sol\":424:451  priceFeed.latestRoundData() */\n      mload(0x40)\n      dup2\n      0xffffffff\n      and\n      0xe0\n      shl\n      dup2\n      mstore\n      0x04\n      add\n      0xa0\n      mload(0x40)\n      dup1\n      dup4\n      sub\n      dup2\n      dup7\n      gas\n      staticcall\n      iszero\n      dup1\n      iszero\n      tag_77\n      jumpi\n      returndatacopy(0x00, 0x00, returndatasize)\n      revert(0x00, returndatasize)\n    tag_77:\n      pop\n      pop\n      pop\n      pop\n      mload(0x40)\n      returndatasize\n      not(0x1f)\n      0x1f\n      dup3\n      add\n      and\n      dup3\n      add\n      dup1\n      0x40\n      mstore\n      pop\n      dup2\n      add\n      swap1\n      tag_78\n      swap2\n      swap1\n      tag_79\n      jump\t// in\n    tag_78:\n        /* \"PriceConvertor.sol\":404:451  (, int answer,,,) = priceFeed.latestRoundData() */\n      pop\n      pop\n      pop\n      swap2\n      pop\n      pop\n        /* \"PriceConvertor.sol\":486:490  1e10 */\n      0x02540be400\n        /* \"PriceConvertor.sol\":477:483  answer */\n      dup2\n        /* \"PriceConvertor.sol\":477:490  answer * 1e10 */\n      tag_80\n      swap2\n      swap1\n      tag_81\n      jump\t// in\n    tag_80:\n        /* \"PriceConvertor.sol\":462:491  return uint256(answer * 1e10) */\n      swap3\n      pop\n      pop\n      pop\n        /* \"PriceConvertor.sol\":205:524  function getPrice() internal  view returns (uint256) {... */\n      swap1\n      jump\t// out\n    tag_57:\n      dup3\n      dup1\n      sload\n      dup3\n      dup3\n      sstore\n      swap1\n      0x00\n      mstore\n      keccak256(0x00, 0x20)\n      swap1\n      dup2\n      add\n      swap3\n      dup3\n      iszero\n      tag_82\n      jumpi\n      swap2\n      0x20\n      mul\n      dup3\n      add\n    tag_83:\n      dup3\n      dup2\n      gt\n      iszero\n      tag_84\n      jumpi\n      dup3\n      mload\n      dup3\n      exp(0x0100, 0x00)\n      dup2\n      sload\n      dup2\n      0xffffffffffffffffffffffffffffffffffffffff\n      mul\n      not\n      and\n      swap1\n      dup4\n      0xffffffffffffffffffffffffffffffffffffffff\n      and\n      mul\n      or\n      swap1\n      sstore\n      pop\n      swap2\n      0x20\n      add\n      swap2\n      swap1\n      0x01\n      add\n      swap1\n      jump(tag_83)\n    tag_84:\n    tag_82:\n      pop\n      swap1\n      pop\n      tag_85\n      swap2\n      swap1\n      tag_86\n      jump\t// in\n    tag_85:\n      pop\n      swap1\n      jump\t// out\n    tag_86:\n    tag_87:\n      dup1\n      dup3\n      gt\n      iszero\n      tag_88\n      jumpi\n      0x00\n      dup2\n      0x00\n      swap1\n      sstore\n      pop\n      0x01\n      add\n      jump(tag_87)\n    tag_88:\n      pop\n      swap1\n      jump\t// out\n        /* \"#utility.yul\":88:205   */\n    tag_90:\n        /* \"#utility.yul\":197:198   */\n      0x00\n        /* \"#utility.yul\":194:195   */\n      0x00\n        /* \"#utility.yul\":187:199   */\n      revert\n        /* \"#utility.yul\":334:411   */\n    tag_92:\n        /* \"#utility.yul\":371:378   */\n      0x00\n        /* \"#utility.yul\":400:405   */\n      dup2\n        /* \"#utility.yul\":389:405   */\n      swap1\n      pop\n        /* \"#utility.yul\":334:411   */\n      swap2\n      swap1\n      pop\n      jump\t// out\n        /* \"#utility.yul\":417:539   */\n    tag_93:\n        /* \"#utility.yul\":490:514   */\n      tag_124\n        /* \"#utility.yul\":508:513   */\n      dup2\n        /* \"#utility.yul\":490:514   */\n      tag_92\n      jump\t// in\n    tag_124:\n        /* \"#utility.yul\":483:488   */\n      dup2\n        /* \"#utility.yul\":480:515   */\n      eq\n        /* \"#utility.yul\":470:533   */\n      tag_125\n      jumpi\n        /* \"#utility.yul\":529:530   */\n      0x00\n        /* \"#utility.yul\":526:527   */\n      0x00\n        /* \"#utility.yul\":519:531   */\n      revert\n        /* \"#utility.yul\":470:533   */\n    tag_125:\n        /* \"#utility.yul\":417:539   */\n      pop\n      jump\t// out\n        /* \"#utility.yul\":545:684   */\n    tag_94:\n        /* \"#utility.yul\":591:596   */\n      0x00\n        /* \"#utility.yul\":629:635   */\n      dup2\n        /* \"#utility.yul\":616:636   */\n      calldataload\n        /* \"#utility.yul\":607:636   */\n      swap1\n      pop\n        /* \"#utility.yul\":645:678   */\n      tag_127\n        /* \"#utility.yul\":672:677   */\n      dup2\n        /* \"#utility.yul\":645:678   */\n      tag_93\n      jump\t// in\n    tag_127:\n        /* \"#utility.yul\":545:684   */\n      swap3\n      swap2\n      pop\n      pop\n      jump\t// out\n        /* \"#utility.yul\":690:1019   */\n    tag_20:\n        /* \"#utility.yul\":749:755   */\n      0x00\n        /* \"#utility.yul\":798:800   */\n      0x20\n        /* \"#utility.yul\":786:795   */\n      dup3\n        /* \"#utility.yul\":777:784   */\n      dup5\n        /* \"#utility.yul\":773:796   */\n      sub\n        /* \"#utility.yul\":769:801   */\n      slt\n        /* \"#utility.yul\":766:885   */\n      iszero\n      tag_129\n      jumpi\n        /* \"#utility.yul\":804:883   */\n      tag_130\n      tag_90\n      jump\t// in\n    tag_130:\n        /* \"#utility.yul\":766:885   */\n    tag_129:\n        /* \"#utility.yul\":924:925   */\n      0x00\n        /* \"#utility.yul\":949:1002   */\n      tag_131\n        /* \"#utility.yul\":994:1001   */\n      dup5\n        /* \"#utility.yul\":985:991   */\n      dup3\n        /* \"#utility.yul\":974:983   */\n      dup6\n        /* \"#utility.yul\":970:992   */\n      add\n        /* \"#utility.yul\":949:1002   */\n      tag_94\n      jump\t// in\n    tag_131:\n        /* \"#utility.yul\":939:1002   */\n      swap2\n      pop\n        /* \"#utility.yul\":895:1012   */\n      pop\n        /* \"#utility.yul\":690:1019   */\n      swap3\n      swap2\n      pop\n      pop\n      jump\t// out\n        /* \"#utility.yul\":1025:1151   */\n    tag_95:\n        /* \"#utility.yul\":1062:1069   */\n      0x00\n        /* \"#utility.yul\":1102:1144   */\n      0xffffffffffffffffffffffffffffffffffffffff\n        /* \"#utility.yul\":1095:1100   */\n      dup3\n        /* \"#utility.yul\":1091:1145   */\n      and\n        /* \"#utility.yul\":1080:1145   */\n      swap1\n      pop\n        /* \"#utility.yul\":1025:1151   */\n      swap2\n      swap1\n      pop\n      jump\t// out\n        /* \"#utility.yul\":1157:1253   */\n    tag_96:\n        /* \"#utility.yul\":1194:1201   */\n      0x00\n        /* \"#utility.yul\":1223:1247   */\n      tag_134\n        /* \"#utility.yul\":1241:1246   */\n      dup3\n        /* \"#utility.yul\":1223:1247   */\n      tag_95\n      jump\t// in\n    tag_134:\n        /* \"#utility.yul\":1212:1247   */\n      swap1\n      pop\n        /* \"#utility.yul\":1157:1253   */\n      swap2\n      swap1\n      pop\n      jump\t// out\n        /* \"#utility.yul\":1259:1377   */\n    tag_97:\n        /* \"#utility.yul\":1346:1370   */\n      tag_136\n        /* \"#utility.yul\":1364:1369   */\n      dup2\n        /* \"#utility.yul\":1346:1370   */\n      tag_96\n      jump\t// in\n    tag_136:\n        /* \"#utility.yul\":1341:1344   */\n      dup3\n        /* \"#utility.yul\":1334:1371   */\n      mstore\n        /* \"#utility.yul\":1259:1377   */\n      pop\n      pop\n      jump\t// out\n        /* \"#utility.yul\":1383:1605   */\n    tag_23:\n        /* \"#utility.yul\":1476:1480   */\n      0x00\n        /* \"#utility.yul\":1514:1516   */\n      0x20\n        /* \"#utility.yul\":1503:1512   */\n      dup3\n        /* \"#utility.yul\":1499:1517   */\n      add\n        /* \"#utility.yul\":1491:1517   */\n      swap1\n      pop\n        /* \"#utility.yul\":1527:1598   */\n      tag_138\n        /* \"#utility.yul\":1595:1596   */\n      0x00\n        /* \"#utility.yul\":1584:1593   */\n      dup4\n        /* \"#utility.yul\":1580:1597   */\n      add\n        /* \"#utility.yul\":1571:1577   */\n      dup5\n        /* \"#utility.yul\":1527:1598   */\n      tag_97\n      jump\t// in\n    tag_138:\n        /* \"#utility.yul\":1383:1605   */\n      swap3\n      swap2\n      pop\n      pop\n      jump\t// out\n        /* \"#utility.yul\":1611:1733   */\n    tag_98:\n        /* \"#utility.yul\":1684:1708   */\n      tag_140\n        /* \"#utility.yul\":1702:1707   */\n      dup2\n        /* \"#utility.yul\":1684:1708   */\n      tag_96\n      jump\t// in\n    tag_140:\n        /* \"#utility.yul\":1677:1682   */\n      dup2\n        /* \"#utility.yul\":1674:1709   */\n      eq\n        /* \"#utility.yul\":1664:1727   */\n      tag_141\n      jumpi\n        /* \"#utility.yul\":1723:1724   */\n      0x00\n        /* \"#utility.yul\":1720:1721   */\n      0x00\n        /* \"#utility.yul\":1713:1725   */\n      revert\n        /* \"#utility.yul\":1664:1727   */\n    tag_141:\n        /* \"#utility.yul\":1611:1733   */\n      pop\n      jump\t// out\n        /* \"#utility.yul\":1739:1878   */\n    tag_99:\n        /* \"#utility.yul\":1785:1790   */\n      0x00\n        /* \"#utility.yul\":1823:1829   */\n      dup2\n        /* \"#utility.yul\":1810:1830   */\n      calldataload\n        /* \"#utility.yul\":1801:1830   */\n      swap1\n      pop\n        /* \"#utility.yul\":1839:1872   */\n      tag_143\n        /* \"#utility.yul\":1866:1871   */\n      dup2\n        /* \"#utility.yul\":1839:1872   */\n      tag_98\n      jump\t// in\n    tag_143:\n        /* \"#utility.yul\":1739:1878   */\n      swap3\n      swap2\n      pop\n      pop\n      jump\t// out\n        /* \"#utility.yul\":1884:2213   */\n    tag_27:\n        /* \"#utility.yul\":1943:1949   */\n      0x00\n        /* \"#utility.yul\":1992:1994   */\n      0x20\n        /* \"#utility.yul\":1980:1989   */\n      dup3\n        /* \"#utility.yul\":1971:1978   */\n      dup5\n        /* \"#utility.yul\":1967:1990   */\n      sub\n        /* \"#utility.yul\":1963:1995   */\n      slt\n        /* \"#utility.yul\":1960:2079   */\n      iszero\n      tag_145\n      jumpi\n        /* \"#utility.yul\":1998:2077   */\n      tag_146\n      tag_90\n      jump\t// in\n    tag_146:\n        /* \"#utility.yul\":1960:2079   */\n    tag_145:\n        /* \"#utility.yul\":2118:2119   */\n      0x00\n        /* \"#utility.yul\":2143:2196   */\n      tag_147\n        /* \"#utility.yul\":2188:2195   */\n      dup5\n        /* \"#utility.yul\":2179:2185   */\n      dup3\n        /* \"#utility.yul\":2168:2177   */\n      dup6\n        /* \"#utility.yul\":2164:2186   */\n      add\n        /* \"#utility.yul\":2143:2196   */\n      tag_99\n      jump\t// in\n    tag_147:\n        /* \"#utility.yul\":2133:2196   */\n      swap2\n      pop\n        /* \"#utility.yul\":2089:2206   */\n      pop\n        /* \"#utility.yul\":1884:2213   */\n      swap3\n      swap2\n      pop\n      pop\n      jump\t// out\n        /* \"#utility.yul\":2219:2337   */\n    tag_100:\n        /* \"#utility.yul\":2306:2330   */\n      tag_149\n        /* \"#utility.yul\":2324:2329   */\n      dup2\n        /* \"#utility.yul\":2306:2330   */\n      tag_92\n      jump\t// in\n    tag_149:\n        /* \"#utility.yul\":2301:2304   */\n      dup3\n        /* \"#utility.yul\":2294:2331   */\n      mstore\n        /* \"#utility.yul\":2219:2337   */\n      pop\n      pop\n      jump\t// out\n        /* \"#utility.yul\":2343:2565   */\n    tag_30:\n        /* \"#utility.yul\":2436:2440   */\n      0x00\n        /* \"#utility.yul\":2474:2476   */\n      0x20\n        /* \"#utility.yul\":2463:2472   */\n      dup3\n        /* \"#utility.yul\":2459:2477   */\n      add\n        /* \"#utility.yul\":2451:2477   */\n      swap1\n      pop\n        /* \"#utility.yul\":2487:2558   */\n      tag_151\n        /* \"#utility.yul\":2555:2556   */\n      0x00\n        /* \"#utility.yul\":2544:2553   */\n      dup4\n        /* \"#utility.yul\":2540:2557   */\n      add\n        /* \"#utility.yul\":2531:2537   */\n      dup5\n        /* \"#utility.yul\":2487:2558   */\n      tag_100\n      jump\t// in\n    tag_151:\n        /* \"#utility.yul\":2343:2565   */\n      swap3\n      swap2\n      pop\n      pop\n      jump\t// out\n        /* \"#utility.yul\":2571:2740   */\n    tag_101:\n        /* \"#utility.yul\":2655:2666   */\n      0x00\n        /* \"#utility.yul\":2689:2695   */\n      dup3\n        /* \"#utility.yul\":2684:2687   */\n      dup3\n        /* \"#utility.yul\":2677:2696   */\n      mstore\n        /* \"#utility.yul\":2729:2733   */\n      0x20\n        /* \"#utility.yul\":2724:2727   */\n      dup3\n        /* \"#utility.yul\":2720:2734   */\n      add\n        /* \"#utility.yul\":2705:2734   */\n      swap1\n      pop\n        /* \"#utility.yul\":2571:2740   */\n      swap3\n      swap2\n      pop\n      pop\n      jump\t// out\n        /* \"#utility.yul\":2746:2912   */\n    tag_102:\n        /* \"#utility.yul\":2886:2904   */\n      0x4e6f7420456e6f75676820457468212100000000000000000000000000000000\n        /* \"#utility.yul\":2882:2883   */\n      0x00\n        /* \"#utility.yul\":2874:2880   */\n      dup3\n        /* \"#utility.yul\":2870:2884   */\n      add\n        /* \"#utility.yul\":2863:2905   */\n      mstore\n        /* \"#utility.yul\":2746:2912   */\n      pop\n      jump\t// out\n        /* \"#utility.yul\":2918:3284   */\n    tag_103:\n        /* \"#utility.yul\":3060:3063   */\n      0x00\n        /* \"#utility.yul\":3081:3148   */\n      tag_155\n        /* \"#utility.yul\":3145:3147   */\n      0x10\n        /* \"#utility.yul\":3140:3143   */\n      dup4\n        /* \"#utility.yul\":3081:3148   */\n      tag_101\n      jump\t// in\n    tag_155:\n        /* \"#utility.yul\":3074:3148   */\n      swap2\n      pop\n        /* \"#utility.yul\":3157:3250   */\n      tag_156\n        /* \"#utility.yul\":3246:3249   */\n      dup3\n        /* \"#utility.yul\":3157:3250   */\n      tag_102\n      jump\t// in\n    tag_156:\n        /* \"#utility.yul\":3275:3277   */\n      0x20\n        /* \"#utility.yul\":3270:3273   */\n      dup3\n        /* \"#utility.yul\":3266:3278   */\n      add\n        /* \"#utility.yul\":3259:3278   */\n      swap1\n      pop\n        /* \"#utility.yul\":2918:3284   */\n      swap2\n      swap1\n      pop\n      jump\t// out\n        /* \"#utility.yul\":3290:3709   */\n    tag_37:\n        /* \"#utility.yul\":3456:3460   */\n      0x00\n        /* \"#utility.yul\":3494:3496   */\n      0x20\n        /* \"#utility.yul\":3483:3492   */\n      dup3\n        /* \"#utility.yul\":3479:3497   */\n      add\n        /* \"#utility.yul\":3471:3497   */\n      swap1\n      pop\n        /* \"#utility.yul\":3543:3552   */\n      dup2\n        /* \"#utility.yul\":3537:3541   */\n      dup2\n        /* \"#utility.yul\":3533:3553   */\n      sub\n        /* \"#utility.yul\":3529:3530   */\n      0x00\n        /* \"#utility.yul\":3518:3527   */\n      dup4\n        /* \"#utility.yul\":3514:3531   */\n      add\n        /* \"#utility.yul\":3507:3554   */\n      mstore\n        /* \"#utility.yul\":3571:3702   */\n      tag_158\n        /* \"#utility.yul\":3697:3701   */\n      dup2\n        /* \"#utility.yul\":3571:3702   */\n      tag_103\n      jump\t// in\n    tag_158:\n        /* \"#utility.yul\":3563:3702   */\n      swap1\n      pop\n        /* \"#utility.yul\":3290:3709   */\n      swap2\n      swap1\n      pop\n      jump\t// out\n        /* \"#utility.yul\":3715:3895   */\n    tag_104:\n        /* \"#utility.yul\":3763:3840   */\n      0x4e487b7100000000000000000000000000000000000000000000000000000000\n        /* \"#utility.yul\":3760:3761   */\n      0x00\n        /* \"#utility.yul\":3753:3841   */\n      mstore\n        /* \"#utility.yul\":3860:3864   */\n      0x11\n        /* \"#utility.yul\":3857:3858   */\n      0x04\n        /* \"#utility.yul\":3850:3865   */\n      mstore\n        /* \"#utility.yul\":3884:3888   */\n      0x24\n        /* \"#utility.yul\":3881:3882   */\n      0x00\n        /* \"#utility.yul\":3874:3889   */\n      revert\n        /* \"#utility.yul\":3901:4092   */\n    tag_41:\n        /* \"#utility.yul\":3941:3944   */\n      0x00\n        /* \"#utility.yul\":3960:3980   */\n      tag_161\n        /* \"#utility.yul\":3978:3979   */\n      dup3\n        /* \"#utility.yul\":3960:3980   */\n      tag_92\n      jump\t// in\n    tag_161:\n        /* \"#utility.yul\":3955:3980   */\n      swap2\n      pop\n        /* \"#utility.yul\":3994:4014   */\n      tag_162\n        /* \"#utility.yul\":4012:4013   */\n      dup4\n        /* \"#utility.yul\":3994:4014   */\n      tag_92\n      jump\t// in\n    tag_162:\n        /* \"#utility.yul\":3989:4014   */\n      swap3\n      pop\n        /* \"#utility.yul\":4037:4038   */\n      dup3\n        /* \"#utility.yul\":4034:4035   */\n      dup3\n        /* \"#utility.yul\":4030:4039   */\n      add\n        /* \"#utility.yul\":4023:4039   */\n      swap1\n      pop\n        /* \"#utility.yul\":4058:4061   */\n      dup1\n        /* \"#utility.yul\":4055:4056   */\n      dup3\n        /* \"#utility.yul\":4052:4062   */\n      gt\n        /* \"#utility.yul\":4049:4085   */\n      iszero\n      tag_163\n      jumpi\n        /* \"#utility.yul\":4065:4083   */\n      tag_164\n      tag_104\n      jump\t// in\n    tag_164:\n        /* \"#utility.yul\":4049:4085   */\n    tag_163:\n        /* \"#utility.yul\":3901:4092   */\n      swap3\n      swap2\n      pop\n      pop\n      jump\t// out\n        /* \"#utility.yul\":4098:4278   */\n    tag_50:\n        /* \"#utility.yul\":4146:4223   */\n      0x4e487b7100000000000000000000000000000000000000000000000000000000\n        /* \"#utility.yul\":4143:4144   */\n      0x00\n        /* \"#utility.yul\":4136:4224   */\n      mstore\n        /* \"#utility.yul\":4243:4247   */\n      0x32\n        /* \"#utility.yul\":4240:4241   */\n      0x04\n        /* \"#utility.yul\":4233:4248   */\n      mstore\n        /* \"#utility.yul\":4267:4271   */\n      0x24\n        /* \"#utility.yul\":4264:4265   */\n      0x00\n        /* \"#utility.yul\":4257:4272   */\n      revert\n        /* \"#utility.yul\":4284:4464   */\n    tag_54:\n        /* \"#utility.yul\":4332:4409   */\n      0x4e487b7100000000000000000000000000000000000000000000000000000000\n        /* \"#utility.yul\":4329:4330   */\n      0x00\n        /* \"#utility.yul\":4322:4410   */\n      mstore\n        /* \"#utility.yul\":4429:4433   */\n      0x41\n        /* \"#utility.yul\":4426:4427   */\n      0x04\n        /* \"#utility.yul\":4419:4434   */\n      mstore\n        /* \"#utility.yul\":4453:4457   */\n      0x24\n        /* \"#utility.yul\":4450:4451   */\n      0x00\n        /* \"#utility.yul\":4443:4458   */\n      revert\n        /* \"#utility.yul\":4470:4617   */\n    tag_105:\n        /* \"#utility.yul\":4571:4582   */\n      0x00\n        /* \"#utility.yul\":4608:4611   */\n      dup2\n        /* \"#utility.yul\":4593:4611   */\n      swap1\n      pop\n        /* \"#utility.yul\":4470:4617   */\n      swap3\n      swap2\n      pop\n      pop\n      jump\t// out\n        /* \"#utility.yul\":4623:4737   */\n    tag_106:\n      pop\n      jump\t// out\n        /* \"#utility.yul\":4743:5141   */\n    tag_107:\n        /* \"#utility.yul\":4902:4905   */\n      0x00\n        /* \"#utility.yul\":4923:5006   */\n      tag_170\n        /* \"#utility.yul\":5004:5005   */\n      0x00\n        /* \"#utility.yul\":4999:5002   */\n      dup4\n        /* \"#utility.yul\":4923:5006   */\n      tag_105\n      jump\t// in\n    tag_170:\n        /* \"#utility.yul\":4916:5006   */\n      swap2\n      pop\n        /* \"#utility.yul\":5015:5108   */\n      tag_171\n        /* \"#utility.yul\":5104:5107   */\n      dup3\n        /* \"#utility.yul\":5015:5108   */\n      tag_106\n      jump\t// in\n    tag_171:\n        /* \"#utility.yul\":5133:5134   */\n      0x00\n        /* \"#utility.yul\":5128:5131   */\n      dup3\n        /* \"#utility.yul\":5124:5135   */\n      add\n        /* \"#utility.yul\":5117:5135   */\n      swap1\n      pop\n        /* \"#utility.yul\":4743:5141   */\n      swap2\n      swap1\n      pop\n      jump\t// out\n        /* \"#utility.yul\":5147:5526   */\n    tag_59:\n        /* \"#utility.yul\":5331:5334   */\n      0x00\n        /* \"#utility.yul\":5353:5500   */\n      tag_173\n        /* \"#utility.yul\":5496:5499   */\n      dup3\n        /* \"#utility.yul\":5353:5500   */\n      tag_107\n      jump\t// in\n    tag_173:\n        /* \"#utility.yul\":5346:5500   */\n      swap2\n      pop\n        /* \"#utility.yul\":5517:5520   */\n      dup2\n        /* \"#utility.yul\":5510:5520   */\n      swap1\n      pop\n        /* \"#utility.yul\":5147:5526   */\n      swap2\n      swap1\n      pop\n      jump\t// out\n        /* \"#utility.yul\":5532:5693   */\n    tag_108:\n        /* \"#utility.yul\":5672:5685   */\n      0x43616c6c206661696c6564000000000000000000000000000000000000000000\n        /* \"#utility.yul\":5668:5669   */\n      0x00\n        /* \"#utility.yul\":5660:5666   */\n      dup3\n        /* \"#utility.yul\":5656:5670   */\n      add\n        /* \"#utility.yul\":5649:5686   */\n      mstore\n        /* \"#utility.yul\":5532:5693   */\n      pop\n      jump\t// out\n        /* \"#utility.yul\":5699:6065   */\n    tag_109:\n        /* \"#utility.yul\":5841:5844   */\n      0x00\n        /* \"#utility.yul\":5862:5929   */\n      tag_176\n        /* \"#utility.yul\":5926:5928   */\n      0x0b\n        /* \"#utility.yul\":5921:5924   */\n      dup4\n        /* \"#utility.yul\":5862:5929   */\n      tag_101\n      jump\t// in\n    tag_176:\n        /* \"#utility.yul\":5855:5929   */\n      swap2\n      pop\n        /* \"#utility.yul\":5938:6031   */\n      tag_177\n        /* \"#utility.yul\":6027:6030   */\n      dup3\n        /* \"#utility.yul\":5938:6031   */\n      tag_108\n      jump\t// in\n    tag_177:\n        /* \"#utility.yul\":6056:6058   */\n      0x20\n        /* \"#utility.yul\":6051:6054   */\n      dup3\n        /* \"#utility.yul\":6047:6059   */\n      add\n        /* \"#utility.yul\":6040:6059   */\n      swap1\n      pop\n        /* \"#utility.yul\":5699:6065   */\n      swap2\n      swap1\n      pop\n      jump\t// out\n        /* \"#utility.yul\":6071:6490   */\n    tag_65:\n        /* \"#utility.yul\":6237:6241   */\n      0x00\n        /* \"#utility.yul\":6275:6277   */\n      0x20\n        /* \"#utility.yul\":6264:6273   */\n      dup3\n        /* \"#utility.yul\":6260:6278   */\n      add\n        /* \"#utility.yul\":6252:6278   */\n      swap1\n      pop\n        /* \"#utility.yul\":6324:6333   */\n      dup2\n        /* \"#utility.yul\":6318:6322   */\n      dup2\n        /* \"#utility.yul\":6314:6334   */\n      sub\n        /* \"#utility.yul\":6310:6311   */\n      0x00\n        /* \"#utility.yul\":6299:6308   */\n      dup4\n        /* \"#utility.yul\":6295:6312   */\n      add\n        /* \"#utility.yul\":6288:6335   */\n      mstore\n        /* \"#utility.yul\":6352:6483   */\n      tag_179\n        /* \"#utility.yul\":6478:6482   */\n      dup2\n        /* \"#utility.yul\":6352:6483   */\n      tag_109\n      jump\t// in\n    tag_179:\n        /* \"#utility.yul\":6344:6483   */\n      swap1\n      pop\n        /* \"#utility.yul\":6071:6490   */\n      swap2\n      swap1\n      pop\n      jump\t// out\n        /* \"#utility.yul\":6496:6906   */\n    tag_72:\n        /* \"#utility.yul\":6536:6543   */\n      0x00\n        /* \"#utility.yul\":6559:6579   */\n      tag_181\n        /* \"#utility.yul\":6577:6578   */\n      dup3\n        /* \"#utility.yul\":6559:6579   */\n      tag_92\n      jump\t// in\n    tag_181:\n        /* \"#utility.yul\":6554:6579   */\n      swap2\n      pop\n        /* \"#utility.yul\":6593:6613   */\n      tag_182\n        /* \"#utility.yul\":6611:6612   */\n      dup4\n        /* \"#utility.yul\":6593:6613   */\n      tag_92\n      jump\t// in\n    tag_182:\n        /* \"#utility.yul\":6588:6613   */\n      swap3\n      pop\n        /* \"#utility.yul\":6648:6649   */\n      dup3\n        /* \"#utility.yul\":6645:6646   */\n      dup3\n        /* \"#utility.yul\":6641:6650   */\n      mul\n        /* \"#utility.yul\":6670:6700   */\n      tag_183\n        /* \"#utility.yul\":6688:6699   */\n      dup2\n        /* \"#utility.yul\":6670:6700   */\n      tag_92\n      jump\t// in\n    tag_183:\n        /* \"#utility.yul\":6659:6700   */\n      swap2\n      pop\n        /* \"#utility.yul\":6849:6850   */\n      dup3\n        /* \"#utility.yul\":6840:6847   */\n      dup3\n        /* \"#utility.yul\":6836:6851   */\n      div\n        /* \"#utility.yul\":6833:6834   */\n      dup5\n        /* \"#utility.yul\":6830:6852   */\n      eq\n        /* \"#utility.yul\":6810:6811   */\n      dup4\n        /* \"#utility.yul\":6803:6812   */\n      iszero\n        /* \"#utility.yul\":6783:6866   */\n      or\n        /* \"#utility.yul\":6760:6899   */\n      tag_184\n      jumpi\n        /* \"#utility.yul\":6879:6897   */\n      tag_185\n      tag_104\n      jump\t// in\n    tag_185:\n        /* \"#utility.yul\":6760:6899   */\n    tag_184:\n        /* \"#utility.yul\":6544:6906   */\n      pop\n        /* \"#utility.yul\":6496:6906   */\n      swap3\n      swap2\n      pop\n      pop\n      jump\t// out\n        /* \"#utility.yul\":6912:7092   */\n    tag_110:\n        /* \"#utility.yul\":6960:7037   */\n      0x4e487b7100000000000000000000000000000000000000000000000000000000\n        /* \"#utility.yul\":6957:6958   */\n      0x00\n        /* \"#utility.yul\":6950:7038   */\n      mstore\n        /* \"#utility.yul\":7057:7061   */\n      0x12\n        /* \"#utility.yul\":7054:7055   */\n      0x04\n        /* \"#utility.yul\":7047:7062   */\n      mstore\n        /* \"#utility.yul\":7081:7085   */\n      0x24\n        /* \"#utility.yul\":7078:7079   */\n      0x00\n        /* \"#utility.yul\":7071:7086   */\n      revert\n        /* \"#utility.yul\":7098:7283   */\n    tag_74:\n        /* \"#utility.yul\":7138:7139   */\n      0x00\n        /* \"#utility.yul\":7155:7175   */\n      tag_188\n        /* \"#utility.yul\":7173:7174   */\n      dup3\n        /* \"#utility.yul\":7155:7175   */\n      tag_92\n      jump\t// in\n    tag_188:\n        /* \"#utility.yul\":7150:7175   */\n      swap2\n      pop\n        /* \"#utility.yul\":7189:7209   */\n      tag_189\n        /* \"#utility.yul\":7207:7208   */\n      dup4\n        /* \"#utility.yul\":7189:7209   */\n      tag_92\n      jump\t// in\n    tag_189:\n        /* \"#utility.yul\":7184:7209   */\n      swap3\n      pop\n        /* \"#utility.yul\":7228:7229   */\n      dup3\n        /* \"#utility.yul\":7218:7253   */\n      tag_190\n      jumpi\n        /* \"#utility.yul\":7233:7251   */\n      tag_191\n      tag_110\n      jump\t// in\n    tag_191:\n        /* \"#utility.yul\":7218:7253   */\n    tag_190:\n        /* \"#utility.yul\":7275:7276   */\n      dup3\n        /* \"#utility.yul\":7272:7273   */\n      dup3\n        /* \"#utility.yul\":7268:7277   */\n      div\n        /* \"#utility.yul\":7263:7277   */\n      swap1\n      pop\n        /* \"#utility.yul\":7098:7283   */\n      swap3\n      swap2\n      pop\n      pop\n      jump\t// out\n        /* \"#utility.yul\":7289:7394   */\n    tag_111:\n        /* \"#utility.yul\":7325:7332   */\n      0x00\n        /* \"#utility.yul\":7365:7387   */\n      0xffffffffffffffffffff\n        /* \"#utility.yul\":7358:7363   */\n      dup3\n        /* \"#utility.yul\":7354:7388   */\n      and\n        /* \"#utility.yul\":7343:7388   */\n      swap1\n      pop\n        /* \"#utility.yul\":7289:7394   */\n      swap2\n      swap1\n      pop\n      jump\t// out\n        /* \"#utility.yul\":7400:7520   */\n    tag_112:\n        /* \"#utility.yul\":7472:7495   */\n      tag_194\n        /* \"#utility.yul\":7489:7494   */\n      dup2\n        /* \"#utility.yul\":7472:7495   */\n      tag_111\n      jump\t// in\n    tag_194:\n        /* \"#utility.yul\":7465:7470   */\n      dup2\n        /* \"#utility.yul\":7462:7496   */\n      eq\n        /* \"#utility.yul\":7452:7514   */\n      tag_195\n      jumpi\n        /* \"#utility.yul\":7510:7511   */\n      0x00\n        /* \"#utility.yul\":7507:7508   */\n      0x00\n        /* \"#utility.yul\":7500:7512   */\n      revert\n        /* \"#utility.yul\":7452:7514   */\n    tag_195:\n        /* \"#utility.yul\":7400:7520   */\n      pop\n      jump\t// out\n        /* \"#utility.yul\":7526:7667   */\n    tag_113:\n        /* \"#utility.yul\":7582:7587   */\n      0x00\n        /* \"#utility.yul\":7613:7619   */\n      dup2\n        /* \"#utility.yul\":7607:7620   */\n      mload\n        /* \"#utility.yul\":7598:7620   */\n      swap1\n      pop\n        /* \"#utility.yul\":7629:7661   */\n      tag_197\n        /* \"#utility.yul\":7655:7660   */\n      dup2\n        /* \"#utility.yul\":7629:7661   */\n      tag_112\n      jump\t// in\n    tag_197:\n        /* \"#utility.yul\":7526:7667   */\n      swap3\n      swap2\n      pop\n      pop\n      jump\t// out\n        /* \"#utility.yul\":7673:7749   */\n    tag_114:\n        /* \"#utility.yul\":7709:7716   */\n      0x00\n        /* \"#utility.yul\":7738:7743   */\n      dup2\n        /* \"#utility.yul\":7727:7743   */\n      swap1\n      pop\n        /* \"#utility.yul\":7673:7749   */\n      swap2\n      swap1\n      pop\n      jump\t// out\n        /* \"#utility.yul\":7755:7875   */\n    tag_115:\n        /* \"#utility.yul\":7827:7850   */\n      tag_200\n        /* \"#utility.yul\":7844:7849   */\n      dup2\n        /* \"#utility.yul\":7827:7850   */\n      tag_114\n      jump\t// in\n    tag_200:\n        /* \"#utility.yul\":7820:7825   */\n      dup2\n        /* \"#utility.yul\":7817:7851   */\n      eq\n        /* \"#utility.yul\":7807:7869   */\n      tag_201\n      jumpi\n        /* \"#utility.yul\":7865:7866   */\n      0x00\n        /* \"#utility.yul\":7862:7863   */\n      0x00\n        /* \"#utility.yul\":7855:7867   */\n      revert\n        /* \"#utility.yul\":7807:7869   */\n    tag_201:\n        /* \"#utility.yul\":7755:7875   */\n      pop\n      jump\t// out\n        /* \"#utility.yul\":7881:8022   */\n    tag_116:\n        /* \"#utility.yul\":7937:7942   */\n      0x00\n        /* \"#utility.yul\":7968:7974   */\n      dup2\n        /* \"#utility.yul\":7962:7975   */\n      mload\n        /* \"#utility.yul\":7953:7975   */\n      swap1\n      pop\n        /* \"#utility.yul\":7984:8016   */\n      tag_203\n        /* \"#utility.yul\":8010:8015   */\n      dup2\n        /* \"#utility.yul\":7984:8016   */\n      tag_115\n      jump\t// in\n    tag_203:\n        /* \"#utility.yul\":7881:8022   */\n      swap3\n      swap2\n      pop\n      pop\n      jump\t// out\n        /* \"#utility.yul\":8028:8171   */\n    tag_117:\n        /* \"#utility.yul\":8085:8090   */\n      0x00\n        /* \"#utility.yul\":8116:8122   */\n      dup2\n        /* \"#utility.yul\":8110:8123   */\n      mload\n        /* \"#utility.yul\":8101:8123   */\n      swap1\n      pop\n        /* \"#utility.yul\":8132:8165   */\n      tag_205\n        /* \"#utility.yul\":8159:8164   */\n      dup2\n        /* \"#utility.yul\":8132:8165   */\n      tag_93\n      jump\t// in\n    tag_205:\n        /* \"#utility.yul\":8028:8171   */\n      swap3\n      swap2\n      pop\n      pop\n      jump\t// out\n        /* \"#utility.yul\":8177:9148   */\n    tag_79:\n        /* \"#utility.yul\":8280:8286   */\n      0x00\n        /* \"#utility.yul\":8288:8294   */\n      0x00\n        /* \"#utility.yul\":8296:8302   */\n      0x00\n        /* \"#utility.yul\":8304:8310   */\n      0x00\n        /* \"#utility.yul\":8312:8318   */\n      0x00\n        /* \"#utility.yul\":8361:8364   */\n      0xa0\n        /* \"#utility.yul\":8349:8358   */\n      dup7\n        /* \"#utility.yul\":8340:8347   */\n      dup9\n        /* \"#utility.yul\":8336:8359   */\n      sub\n        /* \"#utility.yul\":8332:8365   */\n      slt\n        /* \"#utility.yul\":8329:8449   */\n      iszero\n      tag_207\n      jumpi\n        /* \"#utility.yul\":8368:8447   */\n      tag_208\n      tag_90\n      jump\t// in\n    tag_208:\n        /* \"#utility.yul\":8329:8449   */\n    tag_207:\n        /* \"#utility.yul\":8488:8489   */\n      0x00\n        /* \"#utility.yul\":8513:8576   */\n      tag_209\n        /* \"#utility.yul\":8568:8575   */\n      dup9\n        /* \"#utility.yul\":8559:8565   */\n      dup3\n        /* \"#utility.yul\":8548:8557   */\n      dup10\n        /* \"#utility.yul\":8544:8566   */\n      add\n        /* \"#utility.yul\":8513:8576   */\n      tag_113\n      jump\t// in\n    tag_209:\n        /* \"#utility.yul\":8503:8576   */\n      swap6\n      pop\n        /* \"#utility.yul\":8459:8586   */\n      pop\n        /* \"#utility.yul\":8625:8627   */\n      0x20\n        /* \"#utility.yul\":8651:8714   */\n      tag_210\n        /* \"#utility.yul\":8706:8713   */\n      dup9\n        /* \"#utility.yul\":8697:8703   */\n      dup3\n        /* \"#utility.yul\":8686:8695   */\n      dup10\n        /* \"#utility.yul\":8682:8704   */\n      add\n        /* \"#utility.yul\":8651:8714   */\n      tag_116\n      jump\t// in\n    tag_210:\n        /* \"#utility.yul\":8641:8714   */\n      swap5\n      pop\n        /* \"#utility.yul\":8596:8724   */\n      pop\n        /* \"#utility.yul\":8763:8765   */\n      0x40\n        /* \"#utility.yul\":8789:8853   */\n      tag_211\n        /* \"#utility.yul\":8845:8852   */\n      dup9\n        /* \"#utility.yul\":8836:8842   */\n      dup3\n        /* \"#utility.yul\":8825:8834   */\n      dup10\n        /* \"#utility.yul\":8821:8843   */\n      add\n        /* \"#utility.yul\":8789:8853   */\n      tag_117\n      jump\t// in\n    tag_211:\n        /* \"#utility.yul\":8779:8853   */\n      swap4\n      pop\n        /* \"#utility.yul\":8734:8863   */\n      pop\n        /* \"#utility.yul\":8902:8904   */\n      0x60\n        /* \"#utility.yul\":8928:8992   */\n      tag_212\n        /* \"#utility.yul\":8984:8991   */\n      dup9\n        /* \"#utility.yul\":8975:8981   */\n      dup3\n        /* \"#utility.yul\":8964:8973   */\n      dup10\n        /* \"#utility.yul\":8960:8982   */\n      add\n        /* \"#utility.yul\":8928:8992   */\n      tag_117\n      jump\t// in\n    tag_212:\n        /* \"#utility.yul\":8918:8992   */\n      swap3\n      pop\n        /* \"#utility.yul\":8873:9002   */\n      pop\n        /* \"#utility.yul\":9041:9044   */\n      0x80\n        /* \"#utility.yul\":9068:9131   */\n      tag_213\n        /* \"#utility.yul\":9123:9130   */\n      dup9\n        /* \"#utility.yul\":9114:9120   */\n      dup3\n        /* \"#utility.yul\":9103:9112   */\n      dup10\n        /* \"#utility.yul\":9099:9121   */\n      add\n        /* \"#utility.yul\":9068:9131   */\n      tag_113\n      jump\t// in\n    tag_213:\n        /* \"#utility.yul\":9058:9131   */\n      swap2\n      pop\n        /* \"#utility.yul\":9012:9141   */\n      pop\n        /* \"#utility.yul\":8177:9148   */\n      swap3\n      swap6\n      pop\n      swap3\n      swap6\n      swap1\n      swap4\n      pop\n      jump\t// out\n        /* \"#utility.yul\":9154:9710   */\n    tag_81:\n        /* \"#utility.yul\":9193:9200   */\n      0x00\n        /* \"#utility.yul\":9216:9235   */\n      tag_215\n        /* \"#utility.yul\":9233:9234   */\n      dup3\n        /* \"#utility.yul\":9216:9235   */\n      tag_114\n      jump\t// in\n    tag_215:\n        /* \"#utility.yul\":9211:9235   */\n      swap2\n      pop\n        /* \"#utility.yul\":9249:9268   */\n      tag_216\n        /* \"#utility.yul\":9266:9267   */\n      dup4\n        /* \"#utility.yul\":9249:9268   */\n      tag_114\n      jump\t// in\n    tag_216:\n        /* \"#utility.yul\":9244:9268   */\n      swap3\n      pop\n        /* \"#utility.yul\":9303:9304   */\n      dup3\n        /* \"#utility.yul\":9300:9301   */\n      dup3\n        /* \"#utility.yul\":9296:9305   */\n      mul\n        /* \"#utility.yul\":9325:9354   */\n      tag_217\n        /* \"#utility.yul\":9342:9353   */\n      dup2\n        /* \"#utility.yul\":9325:9354   */\n      tag_114\n      jump\t// in\n    tag_217:\n        /* \"#utility.yul\":9314:9354   */\n      swap2\n      pop\n        /* \"#utility.yul\":9412:9478   */\n      0x8000000000000000000000000000000000000000000000000000000000000000\n        /* \"#utility.yul\":9409:9410   */\n      dup5\n        /* \"#utility.yul\":9406:9479   */\n      eq\n        /* \"#utility.yul\":9402:9403   */\n      0x00\n        /* \"#utility.yul\":9399:9400   */\n      dup5\n        /* \"#utility.yul\":9395:9404   */\n      slt\n        /* \"#utility.yul\":9391:9480   */\n      and\n        /* \"#utility.yul\":9388:9503   */\n      iszero\n      tag_218\n      jumpi\n        /* \"#utility.yul\":9483:9501   */\n      tag_219\n      tag_104\n      jump\t// in\n    tag_219:\n        /* \"#utility.yul\":9388:9503   */\n    tag_218:\n        /* \"#utility.yul\":9653:9654   */\n      dup3\n        /* \"#utility.yul\":9644:9651   */\n      dup3\n        /* \"#utility.yul\":9639:9655   */\n      sdiv\n        /* \"#utility.yul\":9636:9637   */\n      dup5\n        /* \"#utility.yul\":9633:9656   */\n      eq\n        /* \"#utility.yul\":9613:9614   */\n      dup4\n        /* \"#utility.yul\":9606:9615   */\n      iszero\n        /* \"#utility.yul\":9586:9670   */\n      or\n        /* \"#utility.yul\":9563:9703   */\n      tag_220\n      jumpi\n        /* \"#utility.yul\":9683:9701   */\n      tag_221\n      tag_104\n      jump\t// in\n    tag_221:\n        /* \"#utility.yul\":9563:9703   */\n    tag_220:\n        /* \"#utility.yul\":9201:9710   */\n      pop\n        /* \"#utility.yul\":9154:9710   */\n      swap3\n      swap2\n      pop\n      pop\n      jump\t// out\n\n    auxdata: 0xa2646970667358221220a29d75cebf1d28673222776e692a33aa1bc86bb477cb913886bf1f3bc1ffed9964736f6c634300081e0033\n}\n",
				"bytecode": {
					"linkReferences": {},
					"object": "60a0604052348015600e575f5ffd5b503373ffffffffffffffffffffffffffffffffffffffff1660808173ffffffffffffffffffffffffffffffffffffffff1681525050608051610b9461005b5f395f6102410152610b945ff3fe608060405260043610610042575f3560e01c80633ccfd60b1461005b57806348e2f81b146100715780636eb20e34146100ad5780638edd6eb6146100e957610051565b366100515761004f6100f3565b005b6100596100f3565b005b348015610066575f5ffd5b5061006f61023f565b005b34801561007c575f5ffd5b5061009760048036038101906100929190610672565b61046d565b6040516100a491906106dc565b60405180910390f35b3480156100b8575f5ffd5b506100d360048036038101906100ce919061071f565b6104a7565b6040516100e09190610759565b60405180910390f35b6100f16100f3565b005b674563918244f40000610105346104bc565b1015610146576040517f08c379a000000000000000000000000000000000000000000000000000000000815260040161013d906107cc565b60405180910390fd5b5f60015f3373ffffffffffffffffffffffffffffffffffffffff1673ffffffffffffffffffffffffffffffffffffffff1681526020019081526020015f2054036101ea575f33908060018154018082558091505060019003905f5260205f20015f9091909190916101000a81548173ffffffffffffffffffffffffffffffffffffffff021916908373ffffffffffffffffffffffffffffffffffffffff1602179055505b3460015f3373ffffffffffffffffffffffffffffffffffffffff1673ffffffffffffffffffffffffffffffffffffffff1681526020019081526020015f205f8282546102369190610817565b92505081905550565b7f000000000000000000000000000000000000000000000000000000000000000073ffffffffffffffffffffffffffffffffffffffff163373ffffffffffffffffffffffffffffffffffffffff16146102c4576040517f251c9d6300000000000000000000000000000000000000000000000000000000815260040160405180910390fd5b5f5f90505b5f80549050811015610363575f5f82815481106102e9576102e861084a565b5b905f5260205f20015f9054906101000a900473ffffffffffffffffffffffffffffffffffffffff1690505f60015f8373ffffffffffffffffffffffffffffffffffffffff1673ffffffffffffffffffffffffffffffffffffffff1681526020019081526020015f20819055505080806001019150506102c9565b505f67ffffffffffffffff81111561037e5761037d610877565b5b6040519080825280602002602001820160405280156103ac5781602001602082028036833780820191505090505b505f90805190602001906103c1929190610599565b505f3373ffffffffffffffffffffffffffffffffffffffff16476040516103e7906108d1565b5f6040518083038185875af1925050503d805f8114610421576040519150601f19603f3d011682016040523d82523d5f602084013e610426565b606091505b505090508061046a576040517f08c379a00000000000000000000000000000000000000000000000000000000081526004016104619061092f565b60405180910390fd5b50565b5f818154811061047b575f80fd5b905f5260205f20015f915054906101000a900473ffffffffffffffffffffffffffffffffffffffff1681565b6001602052805f5260405f205f915090505481565b5f5f6104c66104f4565b90505f670de0b6b3a764000084836104de919061094d565b6104e891906109bb565b90508092505050919050565b5f5f73694aa1769357215de4fac081bf1f309adc32530690505f8173ffffffffffffffffffffffffffffffffffffffff1663feaf968c6040518163ffffffff1660e01b815260040160a060405180830381865afa158015610557573d5f5f3e3d5ffd5b505050506040513d601f19601f8201168201806040525081019061057b9190610a71565b5050509150506402540be400816105929190610ae8565b9250505090565b828054828255905f5260205f2090810192821561060f579160200282015b8281111561060e578251825f6101000a81548173ffffffffffffffffffffffffffffffffffffffff021916908373ffffffffffffffffffffffffffffffffffffffff160217905550916020019190600101906105b7565b5b50905061061c9190610620565b5090565b5b80821115610637575f815f905550600101610621565b5090565b5f5ffd5b5f819050919050565b6106518161063f565b811461065b575f5ffd5b50565b5f8135905061066c81610648565b92915050565b5f602082840312156106875761068661063b565b5b5f6106948482850161065e565b91505092915050565b5f73ffffffffffffffffffffffffffffffffffffffff82169050919050565b5f6106c68261069d565b9050919050565b6106d6816106bc565b82525050565b5f6020820190506106ef5f8301846106cd565b92915050565b6106fe816106bc565b8114610708575f5ffd5b50565b5f81359050610719816106f5565b92915050565b5f602082840312156107345761073361063b565b5b5f6107418482850161070b565b91505092915050565b6107538161063f565b82525050565b5f60208201905061076c5f83018461074a565b92915050565b5f82825260208201905092915050565b7f4e6f7420456e6f756768204574682121000000000000000000000000000000005f82015250565b5f6107b6601083610772565b91506107c182610782565b602082019050919050565b5f6020820190508181035f8301526107e3816107aa565b9050919050565b7f4e487b71000000000000000000000000000000000000000000000000000000005f52601160045260245ffd5b5f6108218261063f565b915061082c8361063f565b9250828201905080821115610844576108436107ea565b5b92915050565b7f4e487b71000000000000000000000000000000000000000000000000000000005f52603260045260245ffd5b7f4e487b71000000000000000000000000000000000000000000000000000000005f52604160045260245ffd5b5f81905092915050565b50565b5f6108bc5f836108a4565b91506108c7826108ae565b5f82019050919050565b5f6108db826108b1565b9150819050919050565b7f43616c6c206661696c65640000000000000000000000000000000000000000005f82015250565b5f610919600b83610772565b9150610924826108e5565b602082019050919050565b5f6020820190508181035f8301526109468161090d565b9050919050565b5f6109578261063f565b91506109628361063f565b92508282026109708161063f565b91508282048414831517610987576109866107ea565b5b5092915050565b7f4e487b71000000000000000000000000000000000000000000000000000000005f52601260045260245ffd5b5f6109c58261063f565b91506109d08361063f565b9250826109e0576109df61098e565b5b828204905092915050565b5f69ffffffffffffffffffff82169050919050565b610a09816109eb565b8114610a13575f5ffd5b50565b5f81519050610a2481610a00565b92915050565b5f819050919050565b610a3c81610a2a565b8114610a46575f5ffd5b50565b5f81519050610a5781610a33565b92915050565b5f81519050610a6b81610648565b92915050565b5f5f5f5f5f60a08688031215610a8a57610a8961063b565b5b5f610a9788828901610a16565b9550506020610aa888828901610a49565b9450506040610ab988828901610a5d565b9350506060610aca88828901610a5d565b9250506080610adb88828901610a16565b9150509295509295909350565b5f610af282610a2a565b9150610afd83610a2a565b9250828202610b0b81610a2a565b91507f800000000000000000000000000000000000000000000000000000000000000084145f84121615610b4257610b416107ea565b5b8282058414831517610b5757610b566107ea565b5b509291505056fea2646970667358221220a29d75cebf1d28673222776e692a33aa1bc86bb477cb913886bf1f3bc1ffed9964736f6c634300081e0033",
					"opcodes": "PUSH1 0xA0 PUSH1 0x40 MSTORE CALLVALUE DUP1 ISZERO PUSH1 0xE JUMPI PUSH0 PUSH0 REVERT JUMPDEST POP CALLER PUSH20 0xFFFFFFFFFFFFFFFFFFFFFFFFFFFFFFFFFFFFFFFF AND PUSH1 0x80 DUP2 PUSH20 0xFFFFFFFFFFFFFFFFFFFFFFFFFFFFFFFFFFFFFFFF AND DUP2 MSTORE POP POP PUSH1 0x80 MLOAD PUSH2 0xB94 PUSH2 0x5B PUSH0 CODECOPY PUSH0 PUSH2 0x241 ADD MSTORE PUSH2 0xB94 PUSH0 RETURN INVALID PUSH1 0x80 PUSH1 0x40 MSTORE PUSH1 0x4 CALLDATASIZE LT PUSH2 0x42 JUMPI PUSH0 CALLDATALOAD PUSH1 0xE0 SHR DUP1 PUSH4 0x3CCFD60B EQ PUSH2 0x5B JUMPI DUP1 PUSH4 0x48E2F81B EQ PUSH2 0x71 JUMPI DUP1 PUSH4 0x6EB20E34 EQ PUSH2 0xAD JUMPI DUP1 PUSH4 0x8EDD6EB6 EQ PUSH2 0xE9 JUMPI PUSH2 0x51 JUMP JUMPDEST CALLDATASIZE PUSH2 0x51 JUMPI PUSH2 0x4F PUSH2 0xF3 JUMP JUMPDEST STOP JUMPDEST PUSH2 0x59 PUSH2 0xF3 JUMP JUMPDEST STOP JUMPDEST CALLVALUE DUP1 ISZERO PUSH2 0x66 JUMPI PUSH0 PUSH0 REVERT JUMPDEST POP PUSH2 0x6F PUSH2 0x23F JUMP JUMPDEST STOP JUMPDEST CALLVALUE DUP1 ISZERO PUSH2 0x7C JUMPI PUSH0 PUSH0 REVERT JUMPDEST POP PUSH2 0x97 PUSH1 0x4 DUP1 CALLDATASIZE SUB DUP2 ADD SWAP1 PUSH2 0x92 SWAP2 SWAP1 PUSH2 0x672 JUMP JUMPDEST PUSH2 0x46D JUMP JUMPDEST PUSH1 0x40 MLOAD PUSH2 0xA4 SWAP2 SWAP1 PUSH2 0x6DC JUMP JUMPDEST PUSH1 0x40 MLOAD DUP1 SWAP2 SUB SWAP1 RETURN JUMPDEST CALLVALUE DUP1 ISZERO PUSH2 0xB8 JUMPI PUSH0 PUSH0 REVERT JUMPDEST POP PUSH2 0xD3 PUSH1 0x4 DUP1 CALLDATASIZE SUB DUP2 ADD SWAP1 PUSH2 0xCE SWAP2 SWAP1 PUSH2 0x71F JUMP JUMPDEST PUSH2 0x4A7 JUMP JUMPDEST PUSH1 0x40 MLOAD PUSH2 0xE0 SWAP2 SWAP1 PUSH2 0x759 JUMP JUMPDEST PUSH1 0x40 MLOAD DUP1 SWAP2 SUB SWAP1 RETURN JUMPDEST PUSH2 0xF1 PUSH2 0xF3 JUMP JUMPDEST STOP JUMPDEST PUSH8 0x4563918244F40000 PUSH2 0x105 CALLVALUE PUSH2 0x4BC JUMP JUMPDEST LT ISZERO PUSH2 0x146 JUMPI PUSH1 0x40 MLOAD PUSH32 0x8C379A000000000000000000000000000000000000000000000000000000000 DUP2 MSTORE PUSH1 0x4 ADD PUSH2 0x13D SWAP1 PUSH2 0x7CC JUMP JUMPDEST PUSH1 0x40 MLOAD DUP1 SWAP2 SUB SWAP1 REVERT JUMPDEST PUSH0 PUSH1 0x1 PUSH0 CALLER PUSH20 0xFFFFFFFFFFFFFFFFFFFFFFFFFFFFFFFFFFFFFFFF AND PUSH20 0xFFFFFFFFFFFFFFFFFFFFFFFFFFFFFFFFFFFFFFFF AND DUP2 MSTORE PUSH1 0x20 ADD SWAP1 DUP2 MSTORE PUSH1 0x20 ADD PUSH0 KECCAK256 SLOAD SUB PUSH2 0x1EA JUMPI PUSH0 CALLER SWAP1 DUP1 PUSH1 0x1 DUP2 SLOAD ADD DUP1 DUP3 SSTORE DUP1 SWAP2 POP POP PUSH1 0x1 SWAP1 SUB SWAP1 PUSH0 MSTORE PUSH1 0x20 PUSH0 KECCAK256 ADD PUSH0 SWAP1 SWAP2 SWAP1 SWAP2 SWAP1 SWAP2 PUSH2 0x100 EXP DUP2 SLOAD DUP2 PUSH20 0xFFFFFFFFFFFFFFFFFFFFFFFFFFFFFFFFFFFFFFFF MUL NOT AND SWAP1 DUP4 PUSH20 0xFFFFFFFFFFFFFFFFFFFFFFFFFFFFFFFFFFFFFFFF AND MUL OR SWAP1 SSTORE POP JUMPDEST CALLVALUE PUSH1 0x1 PUSH0 CALLER PUSH20 0xFFFFFFFFFFFFFFFFFFFFFFFFFFFFFFFFFFFFFFFF AND PUSH20 0xFFFFFFFFFFFFFFFFFFFFFFFFFFFFFFFFFFFFFFFF AND DUP2 MSTORE PUSH1 0x20 ADD SWAP1 DUP2 MSTORE PUSH1 0x20 ADD PUSH0 KECCAK256 PUSH0 DUP3 DUP3 SLOAD PUSH2 0x236 SWAP2 SWAP1 PUSH2 0x817 JUMP JUMPDEST SWAP3 POP POP DUP2 SWAP1 SSTORE POP JUMP JUMPDEST PUSH32 0x0 PUSH20 0xFFFFFFFFFFFFFFFFFFFFFFFFFFFFFFFFFFFFFFFF AND CALLER PUSH20 0xFFFFFFFFFFFFFFFFFFFFFFFFFFFFFFFFFFFFFFFF AND EQ PUSH2 0x2C4 JUMPI PUSH1 0x40 MLOAD PUSH32 0x251C9D6300000000000000000000000000000000000000000000000000000000 DUP2 MSTORE PUSH1 0x4 ADD PUSH1 0x40 MLOAD DUP1 SWAP2 SUB SWAP1 REVERT JUMPDEST PUSH0 PUSH0 SWAP1 POP JUMPDEST PUSH0 DUP1 SLOAD SWAP1 POP DUP2 LT ISZERO PUSH2 0x363 JUMPI PUSH0 PUSH0 DUP3 DUP2 SLOAD DUP2 LT PUSH2 0x2E9 JUMPI PUSH2 0x2E8 PUSH2 0x84A JUMP JUMPDEST JUMPDEST SWAP1 PUSH0 MSTORE PUSH1 0x20 PUSH0 KECCAK256 ADD PUSH0 SWAP1 SLOAD SWAP1 PUSH2 0x100 EXP SWAP1 DIV PUSH20 0xFFFFFFFFFFFFFFFFFFFFFFFFFFFFFFFFFFFFFFFF AND SWAP1 POP PUSH0 PUSH1 0x1 PUSH0 DUP4 PUSH20 0xFFFFFFFFFFFFFFFFFFFFFFFFFFFFFFFFFFFFFFFF AND PUSH20 0xFFFFFFFFFFFFFFFFFFFFFFFFFFFFFFFFFFFFFFFF AND DUP2 MSTORE PUSH1 0x20 ADD SWAP1 DUP2 MSTORE PUSH1 0x20 ADD PUSH0 KECCAK256 DUP2 SWAP1 SSTORE POP POP DUP1 DUP1 PUSH1 0x1 ADD SWAP2 POP POP PUSH2 0x2C9 JUMP JUMPDEST POP PUSH0 PUSH8 0xFFFFFFFFFFFFFFFF DUP2 GT ISZERO PUSH2 0x37E JUMPI PUSH2 0x37D PUSH2 0x877 JUMP JUMPDEST JUMPDEST PUSH1 0x40 MLOAD SWAP1 DUP1 DUP3 MSTORE DUP1 PUSH1 0x20 MUL PUSH1 0x20 ADD DUP3 ADD PUSH1 0x40 MSTORE DUP1 ISZERO PUSH2 0x3AC JUMPI DUP2 PUSH1 0x20 ADD PUSH1 0x20 DUP3 MUL DUP1 CALLDATASIZE DUP4 CALLDATACOPY DUP1 DUP3 ADD SWAP2 POP POP SWAP1 POP JUMPDEST POP PUSH0 SWAP1 DUP1 MLOAD SWAP1 PUSH1 0x20 ADD SWAP1 PUSH2 0x3C1 SWAP3 SWAP2 SWAP1 PUSH2 0x599 JUMP JUMPDEST POP PUSH0 CALLER PUSH20 0xFFFFFFFFFFFFFFFFFFFFFFFFFFFFFFFFFFFFFFFF AND SELFBALANCE PUSH1 0x40 MLOAD PUSH2 0x3E7 SWAP1 PUSH2 0x8D1 JUMP JUMPDEST PUSH0 PUSH1 0x40 MLOAD DUP1 DUP4 SUB DUP2 DUP6 DUP8 GAS CALL SWAP3 POP POP POP RETURNDATASIZE DUP1 PUSH0 DUP2 EQ PUSH2 0x421 JUMPI PUSH1 0x40 MLOAD SWAP2 POP PUSH1 0x1F NOT PUSH1 0x3F RETURNDATASIZE ADD AND DUP3 ADD PUSH1 0x40 MSTORE RETURNDATASIZE DUP3 MSTORE RETURNDATASIZE PUSH0 PUSH1 0x20 DUP5 ADD RETURNDATACOPY PUSH2 0x426 JUMP JUMPDEST PUSH1 0x60 SWAP2 POP JUMPDEST POP POP SWAP1 POP DUP1 PUSH2 0x46A JUMPI PUSH1 0x40 MLOAD PUSH32 0x8C379A000000000000000000000000000000000000000000000000000000000 DUP2 MSTORE PUSH1 0x4 ADD PUSH2 0x461 SWAP1 PUSH2 0x92F JUMP JUMPDEST PUSH1 0x40 MLOAD DUP1 SWAP2 SUB SWAP1 REVERT JUMPDEST POP JUMP JUMPDEST PUSH0 DUP2 DUP2 SLOAD DUP2 LT PUSH2 0x47B JUMPI PUSH0 DUP1 REVERT JUMPDEST SWAP1 PUSH0 MSTORE PUSH1 0x20 PUSH0 KECCAK256 ADD PUSH0 SWAP2 POP SLOAD SWAP1 PUSH2 0x100 EXP SWAP1 DIV PUSH20 0xFFFFFFFFFFFFFFFFFFFFFFFFFFFFFFFFFFFFFFFF AND DUP2 JUMP JUMPDEST PUSH1 0x1 PUSH1 0x20 MSTORE DUP1 PUSH0 MSTORE PUSH1 0x40 PUSH0 KECCAK256 PUSH0 SWAP2 POP SWAP1 POP SLOAD DUP2 JUMP JUMPDEST PUSH0 PUSH0 PUSH2 0x4C6 PUSH2 0x4F4 JUMP JUMPDEST SWAP1 POP PUSH0 PUSH8 0xDE0B6B3A7640000 DUP5 DUP4 PUSH2 0x4DE SWAP2 SWAP1 PUSH2 0x94D JUMP JUMPDEST PUSH2 0x4E8 SWAP2 SWAP1 PUSH2 0x9BB JUMP JUMPDEST SWAP1 POP DUP1 SWAP3 POP POP POP SWAP2 SWAP1 POP JUMP JUMPDEST PUSH0 PUSH0 PUSH20 0x694AA1769357215DE4FAC081BF1F309ADC325306 SWAP1 POP PUSH0 DUP2 PUSH20 0xFFFFFFFFFFFFFFFFFFFFFFFFFFFFFFFFFFFFFFFF AND PUSH4 0xFEAF968C PUSH1 0x40 MLOAD DUP2 PUSH4 0xFFFFFFFF AND PUSH1 0xE0 SHL DUP2 MSTORE PUSH1 0x4 ADD PUSH1 0xA0 PUSH1 0x40 MLOAD DUP1 DUP4 SUB DUP2 DUP7 GAS STATICCALL ISZERO DUP1 ISZERO PUSH2 0x557 JUMPI RETURNDATASIZE PUSH0 PUSH0 RETURNDATACOPY RETURNDATASIZE PUSH0 REVERT JUMPDEST POP POP POP POP PUSH1 0x40 MLOAD RETURNDATASIZE PUSH1 0x1F NOT PUSH1 0x1F DUP3 ADD AND DUP3 ADD DUP1 PUSH1 0x40 MSTORE POP DUP2 ADD SWAP1 PUSH2 0x57B SWAP2 SWAP1 PUSH2 0xA71 JUMP JUMPDEST POP POP POP SWAP2 POP POP PUSH5 0x2540BE400 DUP2 PUSH2 0x592 SWAP2 SWAP1 PUSH2 0xAE8 JUMP JUMPDEST SWAP3 POP POP POP SWAP1 JUMP JUMPDEST DUP3 DUP1 SLOAD DUP3 DUP3 SSTORE SWAP1 PUSH0 MSTORE PUSH1 0x20 PUSH0 KECCAK256 SWAP1 DUP2 ADD SWAP3 DUP3 ISZERO PUSH2 0x60F JUMPI SWAP2 PUSH1 0x20 MUL DUP3 ADD JUMPDEST DUP3 DUP2 GT ISZERO PUSH2 0x60E JUMPI DUP3 MLOAD DUP3 PUSH0 PUSH2 0x100 EXP DUP2 SLOAD DUP2 PUSH20 0xFFFFFFFFFFFFFFFFFFFFFFFFFFFFFFFFFFFFFFFF MUL NOT AND SWAP1 DUP4 PUSH20 0xFFFFFFFFFFFFFFFFFFFFFFFFFFFFFFFFFFFFFFFF AND MUL OR SWAP1 SSTORE POP SWAP2 PUSH1 0x20 ADD SWAP2 SWAP1 PUSH1 0x1 ADD SWAP1 PUSH2 0x5B7 JUMP JUMPDEST JUMPDEST POP SWAP1 POP PUSH2 0x61C SWAP2 SWAP1 PUSH2 0x620 JUMP JUMPDEST POP SWAP1 JUMP JUMPDEST JUMPDEST DUP1 DUP3 GT ISZERO PUSH2 0x637 JUMPI PUSH0 DUP2 PUSH0 SWAP1 SSTORE POP PUSH1 0x1 ADD PUSH2 0x621 JUMP JUMPDEST POP SWAP1 JUMP JUMPDEST PUSH0 PUSH0 REVERT JUMPDEST PUSH0 DUP2 SWAP1 POP SWAP2 SWAP1 POP JUMP JUMPDEST PUSH2 0x651 DUP2 PUSH2 0x63F JUMP JUMPDEST DUP2 EQ PUSH2 0x65B JUMPI PUSH0 PUSH0 REVERT JUMPDEST POP JUMP JUMPDEST PUSH0 DUP2 CALLDATALOAD SWAP1 POP PUSH2 0x66C DUP2 PUSH2 0x648 JUMP JUMPDEST SWAP3 SWAP2 POP POP JUMP JUMPDEST PUSH0 PUSH1 0x20 DUP3 DUP5 SUB SLT ISZERO PUSH2 0x687 JUMPI PUSH2 0x686 PUSH2 0x63B JUMP JUMPDEST JUMPDEST PUSH0 PUSH2 0x694 DUP5 DUP3 DUP6 ADD PUSH2 0x65E JUMP JUMPDEST SWAP2 POP POP SWAP3 SWAP2 POP POP JUMP JUMPDEST PUSH0 PUSH20 0xFFFFFFFFFFFFFFFFFFFFFFFFFFFFFFFFFFFFFFFF DUP3 AND SWAP1 POP SWAP2 SWAP1 POP JUMP JUMPDEST PUSH0 PUSH2 0x6C6 DUP3 PUSH2 0x69D JUMP JUMPDEST SWAP1 POP SWAP2 SWAP1 POP JUMP JUMPDEST PUSH2 0x6D6 DUP2 PUSH2 0x6BC JUMP JUMPDEST DUP3 MSTORE POP POP JUMP JUMPDEST PUSH0 PUSH1 0x20 DUP3 ADD SWAP1 POP PUSH2 0x6EF PUSH0 DUP4 ADD DUP5 PUSH2 0x6CD JUMP JUMPDEST SWAP3 SWAP2 POP POP JUMP JUMPDEST PUSH2 0x6FE DUP2 PUSH2 0x6BC JUMP JUMPDEST DUP2 EQ PUSH2 0x708 JUMPI PUSH0 PUSH0 REVERT JUMPDEST POP JUMP JUMPDEST PUSH0 DUP2 CALLDATALOAD SWAP1 POP PUSH2 0x719 DUP2 PUSH2 0x6F5 JUMP JUMPDEST SWAP3 SWAP2 POP POP JUMP JUMPDEST PUSH0 PUSH1 0x20 DUP3 DUP5 SUB SLT ISZERO PUSH2 0x734 JUMPI PUSH2 0x733 PUSH2 0x63B JUMP JUMPDEST JUMPDEST PUSH0 PUSH2 0x741 DUP5 DUP3 DUP6 ADD PUSH2 0x70B JUMP JUMPDEST SWAP2 POP POP SWAP3 SWAP2 POP POP JUMP JUMPDEST PUSH2 0x753 DUP2 PUSH2 0x63F JUMP JUMPDEST DUP3 MSTORE POP POP JUMP JUMPDEST PUSH0 PUSH1 0x20 DUP3 ADD SWAP1 POP PUSH2 0x76C PUSH0 DUP4 ADD DUP5 PUSH2 0x74A JUMP JUMPDEST SWAP3 SWAP2 POP POP JUMP JUMPDEST PUSH0 DUP3 DUP3 MSTORE PUSH1 0x20 DUP3 ADD SWAP1 POP SWAP3 SWAP2 POP POP JUMP JUMPDEST PUSH32 0x4E6F7420456E6F75676820457468212100000000000000000000000000000000 PUSH0 DUP3 ADD MSTORE POP JUMP JUMPDEST PUSH0 PUSH2 0x7B6 PUSH1 0x10 DUP4 PUSH2 0x772 JUMP JUMPDEST SWAP2 POP PUSH2 0x7C1 DUP3 PUSH2 0x782 JUMP JUMPDEST PUSH1 0x20 DUP3 ADD SWAP1 POP SWAP2 SWAP1 POP JUMP JUMPDEST PUSH0 PUSH1 0x20 DUP3 ADD SWAP1 POP DUP2 DUP2 SUB PUSH0 DUP4 ADD MSTORE PUSH2 0x7E3 DUP2 PUSH2 0x7AA JUMP JUMPDEST SWAP1 POP SWAP2 SWAP1 POP JUMP JUMPDEST PUSH32 0x4E487B7100000000000000000000000000000000000000000000000000000000 PUSH0 MSTORE PUSH1 0x11 PUSH1 0x4 MSTORE PUSH1 0x24 PUSH0 REVERT JUMPDEST PUSH0 PUSH2 0x821 DUP3 PUSH2 0x63F JUMP JUMPDEST SWAP2 POP PUSH2 0x82C DUP4 PUSH2 0x63F JUMP JUMPDEST SWAP3 POP DUP3 DUP3 ADD SWAP1 POP DUP1 DUP3 GT ISZERO PUSH2 0x844 JUMPI PUSH2 0x843 PUSH2 0x7EA JUMP JUMPDEST JUMPDEST SWAP3 SWAP2 POP POP JUMP JUMPDEST PUSH32 0x4E487B7100000000000000000000000000000000000000000000000000000000 PUSH0 MSTORE PUSH1 0x32 PUSH1 0x4 MSTORE PUSH1 0x24 PUSH0 REVERT JUMPDEST PUSH32 0x4E487B7100000000000000000000000000000000000000000000000000000000 PUSH0 MSTORE PUSH1 0x41 PUSH1 0x4 MSTORE PUSH1 0x24 PUSH0 REVERT JUMPDEST PUSH0 DUP2 SWAP1 POP SWAP3 SWAP2 POP POP JUMP JUMPDEST POP JUMP JUMPDEST PUSH0 PUSH2 0x8BC PUSH0 DUP4 PUSH2 0x8A4 JUMP JUMPDEST SWAP2 POP PUSH2 0x8C7 DUP3 PUSH2 0x8AE JUMP JUMPDEST PUSH0 DUP3 ADD SWAP1 POP SWAP2 SWAP1 POP JUMP JUMPDEST PUSH0 PUSH2 0x8DB DUP3 PUSH2 0x8B1 JUMP JUMPDEST SWAP2 POP DUP2 SWAP1 POP SWAP2 SWAP1 POP JUMP JUMPDEST PUSH32 0x43616C6C206661696C6564000000000000000000000000000000000000000000 PUSH0 DUP3 ADD MSTORE POP JUMP JUMPDEST PUSH0 PUSH2 0x919 PUSH1 0xB DUP4 PUSH2 0x772 JUMP JUMPDEST SWAP2 POP PUSH2 0x924 DUP3 PUSH2 0x8E5 JUMP JUMPDEST PUSH1 0x20 DUP3 ADD SWAP1 POP SWAP2 SWAP1 POP JUMP JUMPDEST PUSH0 PUSH1 0x20 DUP3 ADD SWAP1 POP DUP2 DUP2 SUB PUSH0 DUP4 ADD MSTORE PUSH2 0x946 DUP2 PUSH2 0x90D JUMP JUMPDEST SWAP1 POP SWAP2 SWAP1 POP JUMP JUMPDEST PUSH0 PUSH2 0x957 DUP3 PUSH2 0x63F JUMP JUMPDEST SWAP2 POP PUSH2 0x962 DUP4 PUSH2 0x63F JUMP JUMPDEST SWAP3 POP DUP3 DUP3 MUL PUSH2 0x970 DUP2 PUSH2 0x63F JUMP JUMPDEST SWAP2 POP DUP3 DUP3 DIV DUP5 EQ DUP4 ISZERO OR PUSH2 0x987 JUMPI PUSH2 0x986 PUSH2 0x7EA JUMP JUMPDEST JUMPDEST POP SWAP3 SWAP2 POP POP JUMP JUMPDEST PUSH32 0x4E487B7100000000000000000000000000000000000000000000000000000000 PUSH0 MSTORE PUSH1 0x12 PUSH1 0x4 MSTORE PUSH1 0x24 PUSH0 REVERT JUMPDEST PUSH0 PUSH2 0x9C5 DUP3 PUSH2 0x63F JUMP JUMPDEST SWAP2 POP PUSH2 0x9D0 DUP4 PUSH2 0x63F JUMP JUMPDEST SWAP3 POP DUP3 PUSH2 0x9E0 JUMPI PUSH2 0x9DF PUSH2 0x98E JUMP JUMPDEST JUMPDEST DUP3 DUP3 DIV SWAP1 POP SWAP3 SWAP2 POP POP JUMP JUMPDEST PUSH0 PUSH10 0xFFFFFFFFFFFFFFFFFFFF DUP3 AND SWAP1 POP SWAP2 SWAP1 POP JUMP JUMPDEST PUSH2 0xA09 DUP2 PUSH2 0x9EB JUMP JUMPDEST DUP2 EQ PUSH2 0xA13 JUMPI PUSH0 PUSH0 REVERT JUMPDEST POP JUMP JUMPDEST PUSH0 DUP2 MLOAD SWAP1 POP PUSH2 0xA24 DUP2 PUSH2 0xA00 JUMP JUMPDEST SWAP3 SWAP2 POP POP JUMP JUMPDEST PUSH0 DUP2 SWAP1 POP SWAP2 SWAP1 POP JUMP JUMPDEST PUSH2 0xA3C DUP2 PUSH2 0xA2A JUMP JUMPDEST DUP2 EQ PUSH2 0xA46 JUMPI PUSH0 PUSH0 REVERT JUMPDEST POP JUMP JUMPDEST PUSH0 DUP2 MLOAD SWAP1 POP PUSH2 0xA57 DUP2 PUSH2 0xA33 JUMP JUMPDEST SWAP3 SWAP2 POP POP JUMP JUMPDEST PUSH0 DUP2 MLOAD SWAP1 POP PUSH2 0xA6B DUP2 PUSH2 0x648 JUMP JUMPDEST SWAP3 SWAP2 POP POP JUMP JUMPDEST PUSH0 PUSH0 PUSH0 PUSH0 PUSH0 PUSH1 0xA0 DUP7 DUP9 SUB SLT ISZERO PUSH2 0xA8A JUMPI PUSH2 0xA89 PUSH2 0x63B JUMP JUMPDEST JUMPDEST PUSH0 PUSH2 0xA97 DUP9 DUP3 DUP10 ADD PUSH2 0xA16 JUMP JUMPDEST SWAP6 POP POP PUSH1 0x20 PUSH2 0xAA8 DUP9 DUP3 DUP10 ADD PUSH2 0xA49 JUMP JUMPDEST SWAP5 POP POP PUSH1 0x40 PUSH2 0xAB9 DUP9 DUP3 DUP10 ADD PUSH2 0xA5D JUMP JUMPDEST SWAP4 POP POP PUSH1 0x60 PUSH2 0xACA DUP9 DUP3 DUP10 ADD PUSH2 0xA5D JUMP JUMPDEST SWAP3 POP POP PUSH1 0x80 PUSH2 0xADB DUP9 DUP3 DUP10 ADD PUSH2 0xA16 JUMP JUMPDEST SWAP2 POP POP SWAP3 SWAP6 POP SWAP3 SWAP6 SWAP1 SWAP4 POP JUMP JUMPDEST PUSH0 PUSH2 0xAF2 DUP3 PUSH2 0xA2A JUMP JUMPDEST SWAP2 POP PUSH2 0xAFD DUP4 PUSH2 0xA2A JUMP JUMPDEST SWAP3 POP DUP3 DUP3 MUL PUSH2 0xB0B DUP2 PUSH2 0xA2A JUMP JUMPDEST SWAP2 POP PUSH32 0x8000000000000000000000000000000000000000000000000000000000000000 DUP5 EQ PUSH0 DUP5 SLT AND ISZERO PUSH2 0xB42 JUMPI PUSH2 0xB41 PUSH2 0x7EA JUMP JUMPDEST JUMPDEST DUP3 DUP3 SDIV DUP5 EQ DUP4 ISZERO OR PUSH2 0xB57 JUMPI PUSH2 0xB56 PUSH2 0x7EA JUMP JUMPDEST JUMPDEST POP SWAP3 SWAP2 POP POP JUMP INVALID LOG2 PUSH5 0x6970667358 0x22 SLT KECCAK256 LOG2 SWAP14 PUSH22 0xCEBF1D28673222776E692A33AA1BC86BB477CB913886 0xBF 0x1F EXTCODESIZE 0xC1 SELFDESTRUCT 0xED SWAP10 PUSH5 0x736F6C6343 STOP ADDMOD 0x1E STOP CALLER "
				},
				"gasEstimates": {
					"creation": {
						"codeDepositCost": "592800",
						"executionCost": "infinite",
						"totalCost": "infinite"
					},
					"external": {
						"": "infinite",
						"Funders(uint256)": "4943",
						"addresstoFunders(address)": "2824",
						"getFund()": "infinite",
						"withdraw()": "infinite"
					}
				},
				"methodIdentifiers": {
					"Funders(uint256)": "48e2f81b",
					"addresstoFunders(address)": "6eb20e34",
					"getFund()": "8edd6eb6",
					"withdraw()": "3ccfd60b"
				}
			},
			"storageLayout": {
				"storage": [
					{
						"astId": 60,
						"contract": "FundMe.sol:FundMe",
						"label": "Funders",
						"offset": 0,
						"slot": "0",
						"type": "t_array(t_address)dyn_storage"
					},
					{
						"astId": 64,
						"contract": "FundMe.sol:FundMe",
						"label": "addresstoFunders",
						"offset": 0,
						"slot": "1",
						"type": "t_mapping(t_address,t_uint256)"
					}
				],
				"types": {
					"t_address": {
						"encoding": "inplace",
						"label": "address",
						"numberOfBytes": "20"
					},
					"t_array(t_address)dyn_storage": {
						"base": "t_address",
						"encoding": "dynamic_array",
						"label": "address[]",
						"numberOfBytes": "32"
					},
					"t_mapping(t_address,t_uint256)": {
						"encoding": "mapping",
						"key": "t_address",
						"label": "mapping(address => uint256)",
						"numberOfBytes": "32",
						"value": "t_uint256"
					},
					"t_uint256": {
						"encoding": "inplace",
						"label": "uint256",
						"numberOfBytes": "32"
					}
				}
			},
			"userdoc": {
				"kind": "user",
				"methods": {},
				"version": 1
			}
		}
	}
}